:020000040000FA
:2000000000500020E9000000E1000000C9000000E5000000E5000000E5000000000000002E
:20002000000000000000000000000000E5000000E500000000000000E5000000E50000002C
:200040007D190000E5000000191F0000E500000059100000B5140000E5000000E50000000C
:20006000E5000000411F0000E5000000E5000000E5000000E5000000E5000000E5000000DD
:20008000E5000000E5000000E5000000E5000000E5000000E5000000E5000000E500000038
:2000A000E5000000E5000000E5000000E5000000E5000000E5000000E5000000E500000018
:2000C000E5000000E5000000044B1A68B2F5806F03D01B689B0500D4FEE7704728ED00E094
:2000E000FEE700BFFEE700BF08B507F0F3FC104A104B9A420DD2D0430F4918440B4620F07D
:2001000003000430084453F8041B834242F8041BF9D10A480A494FF000028842B8BF40F8AB
:20012000042BFADB00F01CF8FFF7CEFF08BD00BF00000020E0060020F0C60000E00600208E
:20014000CC31002010B50388044613B9034801F015F800232380032010BD00BF78C0000026
:200160002DE9F041584C84B02368584801215B689847236801210A461B685448984707F07F
:2001800027FD01F03FFC01F0A9FB00F015FA01F0E3FB4F494F48504A012303600B60136876
:2001A00007F01AFD00F0CEFE00F038FE02F058FF00F0A8FF02F064FE41F2342003F07EF82B
:2001C00001F044F902F0F0FF444800F0D7FF4AF630520021424801F0F1FE424800F0CEFF2A
:2001E0000021414802F010FF02F01CFC02F096FC3E4801F0E3FE3E4B3E4C186800F0BEFF2E
:200200003D4801F0DBFE3D4B186800F0B7FF3C4801F0D4FE21683B4801F0D0FEE469A0479B
:2002200020B1A0470146384801F0C8FE0A2000F09DFF002408F022FB02A80821334D344EC4
:20024000019400F0D3FF9DF80F209DF80E8002AB03CB42EA0828F76A2860696002204AF675
:20026000CD31B84741460320B84721460120B847082202A9736B0B209847B36A01A90120AC
:2002800098470199234801F099FE234B6A6829685A60196007F020FF2146204802F0B4FE65
:2002A00021461F4802F0B0FE1E4802F065FB00F037FF02F0FFFD044600F04AFF14F0FF0F6F
:2002C000F7D101F0FDF9F4E7D801001000400340080009400C4009402C2009409CC0000051
:2002E000C0C00000D8C00000B804002008C10000FCC5000070C6000010C1000048C600006B
:2003000018C1000020C1000024C100004C300020D0C4000048C1000070270020D804002052
:200320003804002070C000002DE9F04104880646772C30D07E2C27D024B100230380032030
:20034000BDE8F08102F094FD2F4F304B304D3A6818702C60002A45D02346A0462D4C04F8D5
:20036000038093688020002198472B68013357F823202B60002AF2D1DBB2274A1370772373
:2003800033800120BDE8F081204B1B788B4219D00120BDE8F081DFF880801D4D98F8002097
:2003A0001E4F002393423B602B6007DA194CE156002919DB013393422B60F7DB3B68002BE4
:2003C000EFD1DCE7124D134CDFF84C80134F2B683A68E05C511C00F07F0098F80020E054A6
:2003E0003960E7E71346C8E70849074A097852F82320002002F0D4FD0028E8D17E233380C6
:200400000120BDE8F08100BF48040020C8310020E8060020602700203E270020EC06002015
:2004200010B40F4B1C7864B10E4A1368984214D0002303E052F8041F88420CD00133A34232
:20044000F8D1094A0948135D63F07F0313555DF8044B02F0F9BD1C46F3E70024F1E700BF3F
:200460003E27002048040020602700203804002028B1012806BF054BD86800207047044B0B
:20048000186880F48010C0F300507047F0060020C02002408138012801D90020704708B596
:2004A000034B14201B685B689847C0F3804008BDB4010010142806D014204FF480414FF00F
:2004C000805201F021B838B50E4C204602F008FE00B938BD2046042102F0EEFD0A4B1B68ED
:2004E00013F4801504D100F0E1FCE560A06038BD00F0DCFCA368C31AE3600448BDE8384028
:20050000FFF78EBFF0060020C020024064C10000802810B509D0812805D1E1B9194B142044
:200520001B685B6B9847012010BD164B164A1B684FF4801111601B6814200021134A984708
:20054000134A14201368134923F48013136001F0EDF9012010BD0B4C0B4A23684FF4801146
:2005600011601B6814200021084A9847084A21681368142023F4801313600B6B98470120E4
:2005800010BD00BFB4010010E020024000400720D0200240B504000010B5064C04202368B0
:2005A0005B699847236804205B6B98470128F9D110BD00BFB801001010B507F009FB0446F2
:2005C000FFF7EAFF0A4B4FF4A0601B68DB699847084B0121084A196013689B07FCD5074881
:2005E00001F076F904B110BDBDE8104007F0F4BAB801001028200860282008405004002002
:20060000012070470120704708B501F0A3FA30B1044B5B88022B0CBF0120022008BD0220AA
:2006200008BD00BF6005002010B582B001F068FC044601F08FFA08B902B010BD084801A967
:2006400001F090FA0128F7D1638803F44063002BF2D1638803F44063002BF5D0ECE700BFB4
:200660000100010430B583B001F074FA184C88B900256580A37F16485BB2C3F5FF6307336D
:200680009BB201A9238301F06DFA012809D0284603B030BD6388022B08BF0120E8D103B0E9
:2006A00030BD00F04DFC6FF03F052D1A03E000F047FCC54203D563889BB2022BF7D1608820
:2006C00080B2A0F10200B0FA80F04009E7E700BF6005002008B50346B32994BF0A46B42285
:2006E000024819460BF044FB012008BD1A07002070B50A4D00262C6803E024682B68A342D3
:200700000AD02379032BF8D1054802F09DFC24682B680136A342F4D1304670BD0C070020BE
:2007200090040020F8B5104E35682B79032B02D000242046F8BD2C89023C002C08DD8C42A8
:2007400005F10A070ADD3957042089B208F06CF82A68002332602B712046F8BD394622467B
:200760000BF006FBEFE700BF1407002010B582B001F0F0F9D0B10F4C6388022B16D101A957
:200780000D4801F0EFF902E06388022B03D101F0E1F90028F8D16088A0F55050043880B216
:2007A00001288CBF0020012002B010BD012002B010BD00BF600500200100010410B50E4BFD
:2007C0000E4C1B68052284F8242082B09B88204601A9638301F0C6F9012802D0002002B08D
:2007E00010BD204601F010FAA0F10100B0FA80F0400902B010BD00BF78040020A80500202F
:2008000000B583B00A4801A901F0ACF9012803D0002003B05DF804FB054801F0F5F9A0F17E
:200820000100B0FA80F0400903B05DF804FB00BF9005002008B5FFF7C1FF012801D000204C
:2008400008BDFFF7DDFF0128F9D1FFF70BFFC0B208BD00BF08B501F0A1FB01280CD0FFF7D3
:2008600085FF01F043FA01F033F904480449054A002343800B711371012008BD6005002070
:20088000D00700205C080020F8B501F0FBF801F085FB012813D001F05DF960B901F05AF92B
:2008A000044610BB01F0C8F90128054609D001F01DFA0020F8BD164B5B88022BEED10120F6
:2008C000F8BD14494FF4357213480BF051FA134F1349144B144E022003223C7035700870EC
:2008E0001A7001F0ABFA0128E1D101F0B7FA01F0DBF8FFF763FF012801D00020F8BDFFF77A
:200900007FFF0128F9D1BDE8F840FFF7ABBE00BF60050020FCC100001C0400219003002134
:2009200075030021790300213803002130B583B007284FD8DFE800F025204E4E4E4E2F0450
:20094000474B197001F006F900283CD0454B5B88022B08BF002536D1FFF708FF012814BFCC
:2009600003240024FFF77EFE012818BF0324002D6BD1204603B030BD21292ED9022003B0FE
:2009800030BD01295BD00029F8D10191FFF762FF01990846F3E701F10A03182BEED80191DE
:2009A000314CFFF741FE01990F2354F83320D80091422D4D03F1FF334DDD5A1CF5D1FFF773
:2009C00039FF0020DBE7FFF75FFF012841D0032003B030BD012003B030BD244C4FF47A724C
:2009E000208AE38902FB03F302FB00F2A3F5522302F57F42FF32A3F695331D4803EB2243F0
:200A0000A0FB0323CAB2C3F387139A421BD0C82303FB01F1174801F5522303F69533A0FB81
:200A20000321154A890902FB01331B04A0FB032312488AB29B092382E281028482E7FFF769
:200A400023FF0128C3D1002099E7FFF703FF204695E7054680E70A4B28441860AFE700BFFD
:200A6000DE060020600500207CC10000900500201F85EB51D34D621018FCFFFFA8050020AA
:200A80007804002079B130B50C4683B010286FD8DFE800F0101D6E6E6E6E6268376E6E6EC0
:200AA0006E56595D0B00022070470E230B60002003B030BD01F04EF830B13C4B5888A0F16C
:200AC0000200B0FA80F0400920600020F0E738494FF47A72CB89098A02FB03F302FB01F2C0
:200AE000A3F5522302F57F42FF32A3F69533314903EB2243A1FB0323C3F38713236000201D
:200B0000D6E701F027F8002834D1FFF7BDFE012840D140F20343002201A869460192ADF8C6
:200B2000043001F01FF801283CD06FF07F05FFF791FE15F1800F25600CBF03200020B7E716
:200B400000200860B4E721230B600020B0E76FF009030B600020ABE7174B00201B681B68FC
:200B60000B60A5E7154B002093F900300B609FE701209DE70D4B5B88022BC6D140F2034335
:200B8000002201A869460192ADF8043000F0EAFF012804D06FF07F032360032088E79DF90D
:200BA0000250C6E79DF90250C1E700BF60050020900500201F85EB5178040020DE0600202D
:200BC00070B582B0044600F0C5FF28B3234B5B88022B08BF00261FD12149221DA31C214CB5
:200BE00092B29BB2100A2382E16148700A70FFF7BDFD002001F068F9204601A900F0B2FF5E
:200C000088B9012501F074F900236380FFF72AFDEEB9284602B070BDFFF736FE01281BD0BA
:200C2000012002B070BD00F093FA638803F4406333B900F043FE638803F44063002BF8D01D
:200C4000608880B2B0F5505518BF0125DAE7FFF701FE284602B070BD0646BDE760050020BB
:200C600018070020D005002010B50C46B32C014694BF2246B42204480BF07AF82046BDE8AE
:200C80001040FFF79DBF00BF1A07002030B583B001F084F901281BD000F05CFFD0B1154BEC
:200CA0005B88022B1FD000258024134801A900F059FF012803D19DF806406306F5D07DB9E3
:200CC0000E4B64B293F90000A042D4BF0020012003B030BDFFF7D8FD012806D10546E3E7E3
:200CE000FFF7B8FDECE70120F2E7FFF7B3FD0120EEE700BFD005002001000304DE06002020
:200D000008B500F027FF58B1064B5B88022B06D1FFF7BCFF10F1FF3018BF012008BD002001
:200D200008BD00BF600500202DE9F84F284800F0CFFD07F049F9012803D000242046BDE8BD
:200D4000F88F244C244D01F045F8204600218C220BF0E8F800218C2228460BF0E3F84FF09B
:200D6000000CE64640F25F3102261C4B1C481D4A66F3830C66F3830E8427DFF874A0DFF8E0
:200D80007490DFF8748025602C6084F805C0E78000264FF4005B85F805E0EF80CAF8004034
:200DA00083E850008362C0F82C90A8F82010D181A2F810B0FFF768FD01280446BDD10A48F5
:200DC00001F0A4F83146094802F01EF9B6E700BF64040020D00700205C0800200C07002023
:200DE000600500209005002008C50000900400201407002000070020A805002010B5064CF2
:200E0000042023685B699847236804205B6B98470128F9D110BD00BFB801001038B5194A94
:200E200000200021C2E90001174B04201B685B6B9847012801D0FFF7E1FF134B00201B6846
:200E4000DB699847114B0121114A196013689B07FCD5104A10491368096823F4807323F073
:200E600001030E4C13600B6820460D49984740F221220C490C4B04253120256008601A6091
:200E800038BD00BFE0060020B801001028200860282008400C000140C80100100000014028
:200EA000002100043C0001400800014010B40949094C0B68226808688342FAD1DB010749B3
:200EC00003EB52620023C1E900235DF8044BD1E900017047082009400C200940E00600207E
:200EE00010B50B490B4C0B68226808688342FAD1DB01094903EB52620023C1E9002301F0D4
:200F0000EDFE00B910BDBDE8104001F0B9BE00BF082009400C200940E006002010B506F09D
:200F200057FE034B1C6808B906F056FE204610BD08200940704700BF0146012000F060B8F5
:200F400007F028B82DE9F04106F042FE194F1A4A1A4E1B4901243B68002535600C60146043
:200F600080461B682846232198473B6820461B6824219847134A1449136823F4E02343F461
:200F8000403313600D6007F005F8104B1049114A1B6800F500700860146034601B691420EB
:200FA0009847B8F1000F01D0BDE8F081BDE8F04106F012BE84010010A00024430000244314
:200FC000800024430020094008200940B00100101C200940A0022443064A074B10681B6864
:200FE000DB0706D5054B1B681A1A30EA220028BF184670471C200940142009401820094072
:20100000431E012B00D97047C30709D50B4B820719600ED50A480B4B012201601A6003E047
:20102000830705D5064B1960074B01221A6070477047044B01221A60704700BF1820094042
:201040001C20094080022443A0022443014B1868704700BFE808002008B5FFF771FF124B47
:201060001860FFF73DFF114B1B686BB9104B1B6803B908BD0F4B10490020012208601A608C
:20108000BDE8084002F004B80A4B4FF480721A6006F080FF00F2052020F4FF70074B20F040
:2010A00001001860E2E700BFE8080020A00024438000244304200940800224431C20094056
:2010C000820702D5034B01221A60C30700D4704706F082BD000C084008B506F079FD074B6C
:2010E0001A68012A03BF0649022219600022002814BF104642F0010008BD00BF000C084017
:2011000051E5CC1A03490448044B012208601A60704700BF00000840FFFF0F00000C0840A8
:2011200038B5FFF7D9FF064C064D0749074A012325600B601360BDE83840FFF7C1BF00BFD5
:2011400000000840FFFF0F000C0008400401004303490448044B012208601A60704700BF3C
:2011600000000840FFFF0F000C00084010B50446C0B200F07FF9204610BD00BF70B506467A
:201180000024451E04E015F8010F00F073F9013430460AF03FFF8442F5D30A2000F06AF97D
:2011A00000F07CF90128FBD0204670BD70B50446B0B10078C0B1A9B10025661804E014F89D
:2011C000010F38B1B44205D000F054F9631C05F10105F4D100F062F90128FBD0284670BDF4
:2011E0000546F7E70D46F5E70546F3E710B40B4B0B4C13F8012FFF2A0ED1A342F9D1094ABC
:2012000039B11144013801390B78914200F8013FF9D15DF8044B7047034AF1E7C7FF01007D
:20122000CFFF0100F0120050C8FF010038B50C4D02202B685B6998472B6802205B6B9847CD
:2012400001280446064BF7D11B684FF40070DB699847044B044A1C6013689B07FCD538BDAD
:20126000B801001028200860282008402DE9F04340F2F275DFF8DC8083B0FFF7D7FFD8F881
:2012800000302A4EDB682A4898473368294C5B69152098472368DFF8C090274F23F4FE638A
:2012A000D9F8002023F0020323603D60D36B032098472249D9F800204FF0FF330820086068
:2012C0000093D2F840C01A4802210322E047D8F800301748D3F804C019494FF4E1326023B7
:2012E000E04740F2011240F2013E1649164B142008601968154841F0100119600368144954
:20130000002B0CBF134673460B603D60036853B12368326843F0500323601369152003B0BC
:20132000BDE8F043184703B0BDE8F083B0010010001000403810004044100040902002408C
:20134000006CDC02341000402C100040EC08002030100040D0010010B401001008B5064BFB
:2013600002201B685B6B9847012803BF034B186800F00100002008BDB80100106C200840F7
:2013800038B50446FFF7EAFF18B1264A13681907FCD4032C03D0244B1B6803B138BDFFF700
:2013A000DDFFF0B9214D4FF400702B681B6A9847032C2CD01E4B01211E4A196013689B07DC
:2013C000FCD5032000F09AFA022000F097FA4FF0FF3000F093FABDE838404FF0FF3000F08C
:2013E0008DBA154B15481B68DB689847144B15201B685B69984740F2F270124A12491368C4
:2014000023F4FE6323F0020313600860CAE72B684FF400709B6A98472B684FF400701B6BBA
:201420009847C7E718100040EC080020B80100102820086028200840D00100100010004069
:20144000B0010010381000404410004010B506F0BFFB0446054800F03BFA054B00221A6092
:2014600004B110BDBDE8104006F0B6BB7C040020EC08002010B50446FFF770FF08B9FFF7AF
:20148000F5FE044B2146BDE810401B680248DB69184700BFD00100100010004008B5FFF79B
:2014A0005DFF18B1024B1868C0F3C00008BD00BF1810004038B5FFF7B9FE40F2F2710C4B55
:2014C0000C4A1B68116013F0500F10D00A4C0B4D05E02B681B699847094B1B6823B92368B9
:2014E0000848DB06F5D538BDC0B29847F7E738BD401000404410004018100040D00100106B
:20150000EC080020001000402DE9F0410F461646054606F05DFB00221446DFF894C1DFF857
:2015200094E14C484C490123DFF88C81CCF80020CEF8003003600B60D8F8003020461B6874
:2015400001343F219847042CF6D1DFF86C810024D8F8003020469B6801343F219847032C2C
:20156000F6D13E4B1B68FFF7F3FD3D4801F032FE044630B1A368032003B198472468002C68
:20158000F8D16B1C0FD0374937480A680123AB4022EA0303046846F000520B603A43284640
:2015A000236800219847314D314A00242B6814609B690720984700F08BFA00F04BFA2D4853
:2015C0002D4903682D4A23F0030303600B682C4823F4C0530B601368296823F00F03136017
:2015E00004608B6938209847264B274D1B682C60DB6801209847254B254A2C601C601368C3
:2016000013F02004FBD1DFF8B4E0224F22481849224B234A0126114DCEF800603C600460AB
:201620000C601C602B681F491368096823F0030313604B681C48032198470C4B1B4A12481F
:2016400012491B6804600C6016602A689B6BBDE8F0411847A0002443C00024432C200940D6
:20166000F0080020D0200240B4010010B80100100C400940001009400410094008100940E6
:2016800080012243A001001040100940200422431410094040012243440122430800094083
:2016A00024220840D80100100040034018100940000024438000244384010010880104430C
:2016C00070B506F085FA01F061FC002840F0A080FFF782FC0446FFF733FC201A202800F154
:2016E0009B80654801F076FD0446002800F0AB800225636823B19847A84228BF2846C5B2D6
:201700002468002CF5D101F0F1FA044601F0E6FA002840F0A180012D7ED0574801F05AFD78
:201720000446002800F081800626A3680BB1284698472369246826EA0306002CF5D1FFF7ED
:2017400007FD730706F0060572D4002D75D100F0BFF94A484A4903684A4A23F00303036009
:201760000B68494C23F4C0530B6013684748216843F00F030024136004608B6939209847CD
:20178000434B444E1B683460DB6801209847424A424B34601460186810F02000FBD106F04C
:2017A00097FA062D63D03E4C3E4D3F4E2B682368326823F00303236053683C4803219847FA
:2017C000314B1B689B6B98472B6806F075FB384A33680021116035485B68012198472368B1
:2017E000344A012143F00303236011602B6806F095FBFFF775FBFFF7ABFC1F4801F0EAFCC2
:20180000044628B1E36803B198472468002CF9D1BDE8704006F0E0B906F0DEF9264A1368A9
:2018200023F00403136030BF70BDFFF791FC0625204B00221A60002D89D0134B28461B6875
:201840009B69984783E701F051FA044601F046FA022500283FF461AFFFF728FB241AFFF7A5
:20186000F5FB00EB44210220FFF7CAFB53E7022006F0B6F997E700BFF0080020001009409C
:201880000410094008100940B801001080012243A00100104010094020042243141009409B
:2018A000242208402C200940D801001000400340800104430C40094010ED00E0034A136897
:2018C00023F00403136030BF704700BF10ED00E00146014801F08ABCF008002010B5054848
:2018E00001F074FCBDE81040034B02201B6820211B681847F008002084010010421C10D091
:2019000010B50446074B00211B684FF4C0421B689847054901230A68A34022EA03030B60D7
:2019200010BD7047B4010010D020024038B504460D4606F04DF901230549064AA3400B6056
:2019400042F8245000B138BDBDE8384006F044B9E0200240F4080020064B002103F18002DD
:2019600043F8041F9342FBD1034B10201B681B69184700BFF0080020B0010010F8B5094BEB
:20198000094F1D6800241D60012606FA04F32B42E0B203D057F8243003B198470134202C22
:2019A000F3D1F8BDE0200240F408002008B520B9064B01201B685B689847044B40201B68F1
:2019C0005B689847024B00221A6008BDA00100100002224338B50A4C06F060F92368012061
:2019E0009B689847236805461B6801209847236801209B6898471128F9D1284638BD00BFF9
:201A0000A001001030B583B0FFF7E4FF0446042006F02EF9032813D00420032106F0F8F85D
:201A2000042006F025F903280346F9D1074A084812680093556800214FF040521C23A847A5
:201A4000204603B0BDE83040FFF7B0BFA401001000A00C4010B5FFF7BDFF0446042006F077
:201A600007F9022808D00420022106F0D1F8042006F0FEF80228FAD12046BDE81040FFF708
:201A800095BF00BF10B5FFF7A5FF0446012006F0EFF8012803D00320012106F0B9F820463E
:201AA000BDE81040FFF782BF10B5FFF793FF0446012006F0DDF8012802D0044B9B6B984748
:201AC0002046BDE81040FFF771BF00BF4800001010B5FFF77FFF00210446032006F098F821
:201AE000012006F0C5F810B1034B9B6B98472046BDE81040FFF75ABF4800001070B50388AC
:201B000004465BB140F2D312934203D182290AD0012070BD00230380032070BD40F2D313CE
:201B20002380012070BD094B094E1D69FFF710FB06F006FE06F0BAFD8021A847002880B2F1
:201B4000ECDD06F0ADFD33699847EFE7D0C4000070C60000024B186800F00100704700BFCD
:201B60009C21084010F0030370B506460D4602D1028811051FD406F02BF81F4B00301B68FA
:201B800018BF0120DB0720D51C4B1D4C1E6023684CF250322B6003E02368013A2B6014D03A
:201BA00013F0FF0FF8D018B32878A0F10100B0FA80F0400970BD438006F00AF80E4B00307B
:201BC0001B6818BF0120DA0702D468B1002070BD338813F4405FD7D003F44063B3F5006FB4
:201BE00004BF084B1E60CFE705F0F6FF002070BD05F0F2FFD8E700BF9C21084000100440A7
:201C000004100440740900200A4A01E0013A0ED0438803F44063B3F5806FF7D1428802F4FD
:201C20004062A2F58060B0FA80F0400970471046704700BF20A1070030B583B005F0C8FF09
:201C4000224C0546236819201B6A9847236812201B6A9847236819205B699847236812205E
:201C60005B6908349847236801205B699847236801205B6B98470128F9D11549154B164AD4
:201C80000860186013689B07FCD5104C134814492268002303600B601369192098472368C8
:201CA00012201B6998476DB10E4B07221A6001A90D48FFF757FFA0F10100B0FA80F0400935
:201CC00003B030BD05F088FFEEE700BFB00100102C2008402820086028200840101004603B
:201CE00014100460000004600100060430B587B005F06EFF2E4C0546236819205B69984743
:201D0000236812205B6998472A4B1B68DA0715D540F60D04284A29490023136002A80B60CA
:201D2000012201A90293059303930493ADF808408DF81520FFF716FF01282AD02048214BD3
:201D400000240121204A0460196013689B07FCD51E4C012023689B699847236801205B6B9D
:201D600098470228F9D1124C192023681B6A9847236812201B6A9847236819201B699847C2
:201D8000236812201B6998470DB905F025FF07B030BD0F4A01E0013AD0D0BDF80A3003F4A5
:201DA0004063B3F5806FF6D1BDF80A30C6E700BFB00100109C2108401010046014100460F5
:201DC0002C2008402820086028200840B801001020A1070010B506F0F7F868B906F0ECF8F9
:201DE000830703D506F0E8F8440720D406F0E4F8800713D5002010BD06F0E6F801280446F7
:201E0000F8D106F0D9F88207F4D406F0D5F84307F0D4094B03221A60204610BD06F0CCF830
:201E20004107E7D5044B02221A60012010BD024B05221A60012010BDD021084000B583B0C6
:201E400001A90548FFF78EFEA0F10100B0FA80F0400903B05DF804FB01000504F8B5144BF7
:201E60001B68DB0700D4F8BD05F0B2FE0546114A1148124F124E134C00214FF000433B6072
:201E800006601160236819201B6A9847236812201B6A9847236819201B699847236812203E
:201EA0001B69984705B1F8BDBDE8F84005F094BE9C21084010100460141004601810046093
:201EC00000008080B0010010054B0649064A002814BF18460846054B023911601860704780
:201EE00008008080020080801010046014100460014B024A1A60704714100460000080807B
:201F0000014B1868704700BF74090020014B1860704700BF7809002008B5074B1B68DB0793
:201F200004D4FFF789FE012800D008BD034B6FF000421A6008BD00BF9C2108401010046018
:201F400008B5124B1B68D90707D41148FFF716F9FFF772FE012800D008BD05F039FE0D4B23
:201F60001A6812020BD40B4B1A6812F00A0F1CBF6FF00A021A60BDE8084005F02DBE6FF409
:201F800000021A60044801F05FF8ECE79C21084010C500001010046090040020014B187870
:201FA000704700BF3F2700200AB90020704708B508461146FFF7FAF8002008BD0FB400B5E4
:201FC00083B004AB53F8041B04481A46019300F025F803B05DF804EB04B07047A004002042
:201FE000102970B50C46054602D80AE0102C0BD92B686868084910229847103C0028F5D004
:2020000070BD08460029FBD022462B6868680249BDE87040184700BFA0C500002DE9F04F0E
:2020200082460F468FB007924FF0000B3B78002B00F0E880252B08BF3E461BD03C4602E041
:20204000252B04D014466378621C002BF8D1974216460CD0D51B39462A46DAF80030DAF8F1
:2020600004009847002840F079826378AB44002B00F0C88073780136002B00F0C38019461E
:202080000025A1F12003102B1BD8DFE803F0171A1A141A1A1A1A1A1A1A111A0E1A1A0900F3
:2020A00045F0100516F8011FEBE745F00105F9E745F00605F6E745F00805F3E745F0020546
:2020C000F0E7A1F13102082A0B46374600F2DC80A1F13002092A4FF000040AD804EB840483
:2020E00003EB440417F8013F303CA3F13002092AF4D92E2B00F0D1804FF0FF366C2B00F094
:202100003D81682B00F04281782B00F28180DFE813F079007F007F007F007F007F007F00E8
:202120007F007F007F007F007F007F007F007F007F007F007F007F007F007F007F007F00AF
:202140007F007F007F007F007F007F007F007F007F007F007F007F007F007F00BE027F004E
:202160007F007F007F007F007F007F007F007F007F007F007F007F007F007F007F007F006F
:202180007F007F007F007F007F007F007F007F007F007F00BB027F007F007F00B802B5029E
:2021A000B2027F007F007F007F007F007F007F007F007F007F007F007F007F007F007F00FA
:2021C0007F00AF027F007F007F007F007F007F007F007F00AC027F00A902A602A302A00210
:2021E0009D027F00A6027F007F007F007F009A0297027D007F007F0091027F008E027F004C
:202200007F00940258460FB0BDE8F08F45F4407505F4E063B3F5806F07F1010700F0CE8029
:202220004FD9B3F5C06F00F0A581B3F5E06F00F09A81B3F5A06F7FF4F9AE079B012C1A6865
:2022400003F1040307938CBF04F1FF340024EB078DF8202000F1D08150462146FFF7C0FEA8
:20226000002840F07B81DAF80030DAF8040008A901229847002840F071810BF1010C0CEB35
:20228000040505EB040BD1E62A2900F08C800B462E2B4FF000047FF42FAF7B78791CA3F1D6
:2022A0003002092A7AD80F46002606EB860603EB460617F8013F303EA3F13002092AF4D9B2
:2022C0001CE7B3F5807F00F0B080B3F5407F7FF4ADAE079BC34A1968C34815F4804F03F1F8
:2022E000040308BF9046079318BF80460A460023002900F094810DF133094846110941EA55
:2023000003714FEA131E02F00F0673460A4618F8061000F8011D52EA0301EFD1B9EB0006E9
:20232000034600F07E810336B4424FF030024FF078014FF0230300F8022C8CBFA41B002454
:20234000EA0700F8011C00F8033CA0F1030800F1A18150462146FFF743FE002840F0FE8087
:202360004146DAF80030DAF8040032469847002840F0F4805E4406EB040B57E67B786C2B72
:2023800000F00481013745F06005BDE67B78682B00F09381013745F04005B5E62A2B00F037
:2023A00091810F46A8E6079B771C1C680433002C0793B8BF45F0010573789AE6079BD3F8E8
:2023C000009004330793B9F1000F00F08F8299F80030002B00F0B2824B4613F8012F002ADC
:2023E000FBD1C9EB0308002E02DBB04528BFB04644458CBFC8EB04040024E90700F1E08081
:2024000050462146FFF7ECFD002840F0A7804946DAF80030DAF8040042469847002840F03B
:202420009D80D84408EB040B00E6002EABBF25F0100501230196019315F40053049305F082
:20244000E00300F0A880402B00F07F8200F24181002B00F02D82202B40F05A82079B1A1D77
:20246000079293F90020D317002A73F10001C0F22A82CDE902230023059305F4C053B3F5F6
:20248000805F00F09281B3F5C05F00F0BF81B3F5006F00F067810DF136064FF00008019B57
:2024A00041F20802984541F6080303EA050380F0338101999342C8EB0101019100F046813A
:2024C00041F6080201999342414400F031814FF000094A46049B73B1059B002B40F083818B
:2024E00005F00603022B00F01B824048062B04BF02464FF0010909EB01039C428CBFE41AF8
:20250000002415F00103049306D1E80640F1F681019B2344049C0193B9F1000F07D011466C
:20252000DAF80030DAF804004A469847B0B9019B08EB0B05102B40F291819B4603E0BBF15D
:20254000100F40F28E81DAF80030DAF80400284910229847ABF1100B0028F0D04FF0FF30B4
:202560000FB0BDE8F08F079B1A680433C2F800B007935BE5DAF80030DAF804001D49012278
:2025800098470028EAD10BF1010B4FE5BB7845F080050237B8E5402B00F0C68100F2A980BD
:2025A000002B00F09881202B40F02181079B049A05921A1D07921A780023CDE902235CE750
:2025C0004946DAF80030DAF80400424698470028C4D150462146D844FFF702FD00283FF407
:2025E00021AFBBE76CC5000058C5000090C50000B0C500009CC50000DAF80030DAF8040018
:2026000008A9012298470028A8D1504621460BF10105FFF7E5FC00283FF433AE9EE70DF1D1
:202620003303302203F8012C581E04267CE645F41065EDE545F48065EAE545F4C855E7E559
:2026400045F48855E4E545F4E065E1E545F48135DEE545F40075DBE545F40245D8E545F4C1
:202660002455D5E545F4A065D2E545F4C135CFE545F4B245CCE545F4A135C9E545F48445AF
:20268000C6E545F44245C3E545F4E135C0E545F4C065BDE54146DAF80030DAF8040032465C
:2026A000984700287FF45AAF504621465E44FFF797FC00283FF45FAE50E7BB7845F0200543
:2026C000023721E5079ABB78111D07911668023714E5602B00F0EC80802B40F01981079B73
:2026E000073323F0070303F108020792D3E90023BAE6602B00F0EF80802B78D1049B059358
:20270000079B073323F0070303F108020792D3E90023CDE90223B0E6934200F0EC80002286
:20272000019241F608020199934241447FF4CFAEDDE9022313433FF4CAAE874B15F4804F4B
:20274000864A4FF0020908BF1A46C3E60B46002908BF01230193019B4FF000094A4603EB34
:202760000801B7E6DDE9028942464B46134300F0E7800DF136031E460693404649460A2227
:20278000002308F0EBFF30324046494606F8012D00230A2208F0E2FF8046894658EA090386
:2027A000EBD1069BC6EB030879E6DDE90223134300F0C6800DF1360306939E46DDE902238B
:2027C000D00840EA4370DE0802F007013346024630310EF8011D52EA0301F1D1069B7646BF
:2027E000CEEB03085BE64FF001095D4A83E605F4C053002200200021B3F5805F0592CDE938
:202800000201D2D0B3F5C05F40F08580DDE90201544A554B15F4804F14BF90469846024669
:202820000B46134300F08C800DF1360306931E4602460B46110941EA03714FEA131E02F013
:202840000F0073460A4618F8001006F8011D52EA0301EFD1069BC6EB030820E6019B9B4644
:202860004BB15A46DAF80030DAF804003F49984700287FF473AE31464246DAF80030DAF8EE
:2028800004004D44984700287FF468AE019B2B441E46049B002B3FF46EAD50462146FFF799
:2028A0009FFB00287FF45AAE06EB040BFFF7BEBB079B1A6804330793002A4FEAE27373F15B
:2028C0000001BFF6D6AD524263EB4303CDE9022301230593D1E5049A079B05921A680021D0
:2028E000104604330793CDE90201C6E5DFF884904FF0060877E5012301932CE750462146F1
:202900000292FFF76DFB029A00283FF405AE25E600220023ADE5DDF814800DF13606BEE5F3
:20292000134A4FF00109E6E5079B049A05921A1D07921A880023CDE902239EE5984652E547
:202940004FF000080DF13606A9E5079B1A1D0792B3F90020D31787E584C5000080C5000046
:2029600088C5000058C500006CC50000B0C500008CC5000094C5000010B50446006830B145
:20298000002100F041FB54F8040F0028F8D110BDF0B5038883B005465BB14A2B04D1882918
:2029A0001BD0012003B0F0BD00230380032003B0F0BD194800F00EFC044630B1201DA168B6
:2029C00000F064F92468002CF8D1144B01221A704A2301202B8003B0F0BD0F48019200F0AA
:2029E000F9FB04460028F3D0019A031D9A4205D02468231D002CEBD09A42F9D10648214634
:202A000000F038FC064E6269A369376832600BB1E06998473760DBE77C09002040270020CD
:202A20008C09002010B5064B002406481C7000F0CDFB2146BDE81040034800F0E5BA00BF20
:202A4000402700207C090020A804002070B504460D48049D0078A261E361656130B9A160AA
:202A60000A482146BDE8704000F0C0BB084D094B2E68201D2B6000F009F92E602146BDE84A
:202A80007040024800F0B2BB402700207C0900208C090020A804002010B5044C82B024685F
:202AA0000094FFF7D3FF02B010BD00BF8C09002070B5094B04461B783BB1084D084B2E6847
:202AC00004302B6000F0ECF82E602146BDE87040044800F08BBB00BF402700208C0900209C
:202AE000A80400207C09002010B50A4B04461B783BB9C36003612146BDE81040064800F059
:202B0000B9BB043000F0FCF82146BDE81040024800F0B0BB402700207C090020704700BF86
:202B200010B50E4C2368B3B1FEF7C0F922685168136892681944091A4AB192E818002344AD
:202B40001B1A9268994228BF1946002AF5D1044B0844186010BD024A136010BD8009002020
:202B6000840900202DE9F041038805467BB1592B08D1872912D0822920D059232B8001208D
:202B8000BDE8F081002303800320BDE8F081254A0120136059232B80BDE8F081214F3B68ED
:202BA000002BEAD0D9688A4203D024E0D9688A4220D19B68002BF9D13B60DEE7194F4FF04F
:202BC00000083C68002CD8D0002604E0A3682646002BD2D01C46204600F082FA0028F5D006
:202BE000E0688821224600F0DBF978B10E4800F02BFAEBE73B6099680029BED0C86882420B
:202C00000BBF89680B4699608968F5E7E060A3682EB1B360C4F80880FFF782FFD1E73B6097
:202C2000F8E700BF80090020B804002010B50446104800F009FA1049E3680A684BB142B112
:202C400094420FD0134601E09C420BD09B68002BFAD10A4BA2601B680C60E360BDE8104055
:202C6000FFF75EBF054B1B68E360BDE81040FFF757BF00BFB8040020800900208C09002031
:202C8000014800F0E1B900BFB804002010B5044600F012FA2046BDE81040FFF7C7BF00BF25
:202CA00010B5044600F010FA2046BDE81040FFF7BDBF00BF10B5044600F00CFA2046BDE86F
:202CC0001040FFF7B3BF00BFC068B0FA80F04009704700BF05C81044704700BF024B186818
:202CE000003018BF0120704780090020024B186808B1024B186870478009002084090020EC
:202D000010B5114B04461A68904218D05AB19368834208BF13460AD02BB19A68A24206D0AF
:202D20001346002BF9D10023A360E36010BDA2689A60FFF7F5FE0023A360E36010BD826802
:202D40001A60FFF7EDFEEEE7800900202DE9F843DFF8A480274DD8F800702E68874247D024
:202D600077B33B4601E0002B3BD01B689842FAD133B3837B8946044623B3002383736FB15D
:202D8000BC424FF0870106D0BB7BDB0703D53846224600F033F83F68002FF1D1A3683BB118
:202DA0004C4505D02C6004F10C00832100229847D8F80000844208D12368C8F800302E6003
:202DC000BDE8F88338468442F6D00028F7D00368A34208D0002BF2D01A68A24204D0134632
:202DE000F8E7BDE8F883034622681A602E60E7E73B46BDE78C0900209009002070B5866885
:202E00007EB104460A4802230460A37304F10C000D46B0470238012804D9832D02D0012317
:202E2000A37370BD20462146BDE87040FFF78EBF8C09002070B50C4A0C4B146800251D7035
:202E400084B1012601E0246864B1E37B002BFAD0A673E573204682210022FFF7CFFF246855
:202E6000002CF2D170BD00BF9009002045270020024B1878421C1A70704700BF462700206A
:202E800070B407480749084A0023084D084C8A2603700B6013602E70237070BC704700BF7D
:202EA00043270020900900208C09002046270020412700202DE9F8432B4D2B780BB1FFF7E7
:202EC000B9FF2A4E33781BB3DFF8B4E028499EF80040013B04EB4402920088180134895CDA
:202EE000DFF8A0C04268DFF8A0808068214FDBB204F01F0433708EF80040CCF80000C8F811
:202F00000020397088B1812906D0847BE40705D428781844BDE8F88301238373FFF76EFFD3
:202F2000337828781844BDE8F883134A134C12682260002AECD0A1460AE020683978837B24
:202F4000D8F80020DB0709D403682360002BE7D02B78002BF1D0FFF76DFFEEE7FFF74EFFE9
:202F6000D9F80000F0E700BF45270020432700209409002042270020900900208809002024
:202F800041270020180B0020140B0020024A034B10781B7818447047432700204527002049
:202FA000F0B50F4E3478202C17D00E4BDFF838E01B78DFF838C0234403F01F0303EB4305D4
:202FC000AD000EEB05070134B86034707A608CF800300EF805100020F0BD0120F0BD00BF4B
:202FE0004327002041270020940900204427002038B5837B034CDB07256801D5FFF7FEFE06
:20300000256038BD8C09002070B404460D4D2868A04206D038B1034600E023B11B689C422A
:20302000FBD170BC7047002CFBD0012600232060A673A3810A4620462C60812170BCFFF7DD
:20304000D7BF00BF9009002038B1837B013B012B03D8024A01231370C373704745270020CC
:20306000FDF768BF38B5094C049D226822B180E82A002060002038BD024680E82A000846A6
:203080002260FDF759FF002038BD00BF1C0B002010B5084C206858B1002243688168226065
:2030A0009847236823B1BDE810401868FDF744BF10BD00BF1C0B002010B541600446FDF7EF
:2030C000F5FE206010BD00BF90E80C0013440360704700BF10B50446FDF7E8FE206010BD07
:2030E00010B50446FDF7E2FE23686268C3F10103184482422CBF0020012010BDF8B504888E
:203100000546672C0CD0792C1BD01CB1002303800320F8BDFFF7ACFE1E4A1F4B10701C60AC
:203120001D4C264604E00A2813D023687E2B2BDD1A4800F0D3F8431CF5D167232B800120ED
:20314000F8BD852901D00120F8BD134C00232360E6E7114C124F23680E49002603F1010ECA
:203160003A4609783046FE54C4F800E0FFF718FF0C4B324618688521FFF712FF0028E5D103
:2031800079232B800120F8BD05495A1CC8543260CEE700BFC9310020280C0020A00B0020F3
:2031A000A80B00208C09002008B505480549802200F08CF8BDE8084003480021FFF724BFE7
:2031C000A00B0020200B0020C804002000230360704700BF00687047006808B904E0184667
:2031E0000368002BFBD17047704700BF026842B1914203D11BE099420ED01A461368002B82
:20320000F9D100230B6002680AB90EE01A461368002BFBD1116070470B68136000230B60CD
:2032200000230B600268002AF1D1016070470B680360F3E710B404684CB1A14217D0224683
:2032400002E0994208D01A461368002BF9D10C6001605DF8044B70470C460B681360002386
:20326000236004680C6001605DF8044B70470B680360F4E7026842B18A4203D10BE09942C3
:2032800004D01A461368002BF9D170471968116000221A607047134612680260F8E700BFBB
:2032A00003682BB100201B680130002BFBD170471846704700B10068704700BF08F080BE6B
:2032C00008B508F087FE80B208BD00BF0023013A0160027143718371704700BF034680796C
:2032E00059791A79091A114208D010B4411C1C680A40205C9A715DF8044B70474FF0FF30DC
:20330000704700BF013A0A44914230B414D20C4625786378023403EB05239BB2184480B220
:20332000834284BF013080B2A242F1D8CB43134423F0010302331944914201D030BC704720
:203340000B7830BC1B02184480B2834284BF013080B2704730B5134B134D1C782B796A7973
:20336000C4EB0323134483B09BB2ADF80630BDF8063005F108011844202280B2FFF7C2FF55
:20338000BDF8062004F12801294492B2FFF7BAFF18B94FF6FF7003B030BD40BA80B203B0D0
:2033A00030BD00BF4727002078270020022318462DE9F0412C4D2D4E2A782D4F2832B11815
:2033C0004978C90001F1070E704548DC8118745CDFF89880012C31440AD01DD3632C0DD152
:2033E0003B7003F091FD224AD0B10120BDE8F0814C7802340319DBB21846E5E704F0C004F8
:20340000802C19D0C02C24D0402C1ED04B7802330344DBB21846D7E7431CDBB21846D3E7F1
:203420002B78117828330B44984498F801300B4402331370BDE8F0813B70024402210420C4
:2034400006F0B0FC0220BDE8F0813B700120BDE8F08198F818103B70FF29EED1C5E73B700F
:203460000020BDE8F08100BF47270020782700204927002070B4C278134C0A44D2B2E27099
:2034800083780E0A3344DBB2A37045789E4265700078207003D90135EDB265708DB1C9B249
:2034A0008A420CDA0133DBB2A370074A3BB953780133DBB2537013B913780133137070BCB8
:2034C000704701302070EAE76C27002010B5084C014620681430FFF7CDFF064A236850785F
:2034E00014789178D2781C7558759975DA7510BD702B00206C2700203A20FFF72BBF00BFFE
:2035000008B506F08DFF06F03BFD01F055F9104B002103F1280223F8021F9342FBD10D4B30
:203520000D4803F5F071002283F8252030338B42FAD10A4A0A4B4FF48061118003F5A07199
:2035400000221A8220338B42FBD10A23037008BD5A2D0020742B00204A27002032270020EC
:20356000882D00202DE9F041134E347814B3134F04F127033D88AB4204DB00233B803370C8
:20358000BDE8F081DFF83880A5F12802121B04F128012C1B4144A4B208F1280008F05EFCE6
:2035A000A4F12803191200223C8088F8053088F804103270BDE8F081472700206427002008
:2035C00078270020F0B40E4E0E4F3288002382423B700FD001231D46314631F8024F5A1CB6
:2035E000844206D0142A1346D5B2F6D13D70F0BC70473D70002226F81320F0BC704700BFF8
:203600005C2D00204A2700202DE9F04FB64B042889B01D682BD0B54ADFF8F0A2DFF8F0B254
:203620000328CAF80020CBF800202DD0022800F09E80052800F0728112F83C1CA2F13C0420
:2036400001F0F001602900F0E980A94BA94EDFF8C482DFF8C4920193019A0023338088F8EC
:20366000003089F80030137009B0BDE8F08FA04BA04EA14901930B88002B40F06A81DFF802
:203680009482DFF89492E7E795F825E00EF00F0EBEF1030F00F0F480BEF1020FD5D1A2F17E
:2036A0003C0404F118030293914B924E019340234FF0020C04200021602284F835E084F851
:2036C0003CC084F83D0084F83E1084F83F30338084F834202B7DDFF8308284F830306B7D08
:2036E000029F84F83130AB7D84F83230EB7D84F833302B7E84F82C306B7E84F82D30AB7E93
:2037000084F82E30EB7E84F82F302B8A23856B8A638595E80F0087E80F0008F1080008F14D
:20372000180106F0E5FD95F8253003F0100303F0FF02002B40F05081402388F8362088F8D7
:20374000373033886D4A283B1579062100221E12084663712671E571A17184F83B2084F8B2
:203760003A202287FFF7F6FDC043208725E16448604EC378DFF89C8101335F490022DBB299
:20378000C370328088F800200A8063B983780133DBB283703BB943780133DBB2437013B960
:2037A00003780133037095F8253003F0FD02052A00F08C80002B00F09280AA8B002A00F06C
:2037C000108395F82620501E85F82600002A40F0868095F82720082A00F04C83581E0128AE
:2037E00040F24583042A9CBF0320904003F00F0E94BFC0B2302001320EF1FF3385F8272006
:2038000085F82600072B6AD8DFE813F00C01FB001501020169000201690002012179354EB1
:203820006079090235880F18AF4200F3DB80257A28300144FF2D318000F0D480314DDFF8CF
:20384000D480DFF8D490A0790021363A2A6088F8001089F80010002840F0168101220193DE
:2038600089F80020FFF7A2FD0128019B00F06381C0F0FE80022840F007811D4B0193A1E0EC
:20388000AB8B002B7FF4E1AE194A082301921370184E02F019FA1849019B1A7802F0200312
:2038A00003F0FF00002B00F0AB82174C002385F8253014220B8004F1180384F8352002933F
:2038C0003C233380502384F8343003E795F826300133DBB2782B85F8263000F08A80044B36
:2038E000DFF834900193B7E6702B0020B4270020602B002064270020842D00205C30002073
:203900002C0C0020642B0020782700206C2B0020682700204727002048270020A349096801
:20392000098A00293FF491AEA148A2490546A24E0C3A01900824002008800291CAF800202A
:20394000CBF80020186030802C7002F0BDF9029991E6964A994C126803F1080149BA0020A7
:2039600092F814E0A185E085118A303321859BB2508AA3F128010D124FF0110884F807E0DC
:20398000257160853380617184F8068004F118050FCA85E80F00294604F1080006F0A8FCB8
:2039A000874B04F13C0240461A60FFF7D3FCC04380B268B1E08503F037FC0023602222702D
:2039C00063706380019A0023137009B0BDE8F08F4FF6FF73E385EEE7002388F8373088F895
:2039E0003630AEE6724BDFF8E0810193DFF8DC9132E6002385F825306D4BDFF8D09101936F
:203A00002AE66B4B6D4C019304F1180302934EE6674B6A4C019304F118030293112384F869
:203A200035304DE7624B654C019304F1180302934FF0120E3BE65E4A04230291137001925E
:203A400002F042F902990B88DBF80020CAF80020002B00F0EC81AB8B002B00F0E881574C51
:203A60003C3318223380A31884F83520029329E798F8002002F1280121444878083202EBA1
:203A8000C002296088F8002001934E4B1846029306F00CFB019B002800F0248229684A4A9F
:203AA00008783C2800F29581DFE810F08801930193019301930193010C019301930193011D
:203AC0009301930193019301930193019301B4009301930193019301930193019301930186
:203AE000930193019301930193019301930193019301930193019301930193019301930186
:203B00009301920045009301930193019301930193019301930193019301930193019301B6
:203B20006300450048001120FFF714FC4FF6FF729042019B7ED01E4B01938DE599F80000EC
:203B4000870740F1A881470600F143811F4940F04000087003920193FFF728FC0128019B23
:203B6000039AE8D0C0F0B08102283FF486AE296896E73A20FFF7EEFB4FF6FF739842DAD1FB
:203B800098F80030104D2833E05C01F00FFF98F800302833E2185178E05C06F0DFF8012862
:203BA00000F0E4823388002BC5D066E6682B0020602B0020842D002064270020782700204F
:203BC0006C2B002090270020472700204827002099F800E00EF0040000F0FF070197002811
:203BE00040F0F78098F80000AD4F00F12801214491F803C04EF0040E87F800E0BCF1000F5C
:203C000040F0B88291F801E0083000EBCE001070296045E70193FFF7A5FC3288A14BE18D6B
:203C2000303ACAF80030A3F130053280019B00297FF479AFB5F82AC0BCF1000F3FF47BAF9D
:203C4000994A9A4F984D3A60228D0396029205F5A074664604E02035A5423D6000F09D81B8
:203C60002A8A002AF7D09642F5D1B5F812E090481022BEF1000F02D002998E45EBD129680D
:203C800029B9696819B9A96809B9E96831B12946019308F03BF8019B0028DCD1854C86495A
:203CA000254601947F4C002202200A800291039ECAF80040CBF8004028701A6002F004F832
:203CC0000299D8E40193FFF74DFC0620FFF742FB4FF6FF729042019B7FF42DAF628D1146A8
:203CE0000192764A00293FF426AF128D0592002A3FF421AF724F039407F5F0753C4603E0BF
:203D00003034AC4200F04E8194F825200492002AF6D0228A01998A42F2D1628A05998A4210
:203D2000EED1634821461022069307F0EFFF069B0028E5D15F49A4460D46039C019194F8E1
:203D400035E028700EF0040202F0FF010591C3F800C065465949002A40F09A83594891F8C1
:203D600034200746318812090390049892002839891A00F00F0089B2022831803A7000F05A
:203D80009683012800F08D8319B91EF0030F00F0AF82A28DBCF8141017468F42474A00F018
:203DA000A1821EF0020F05D001283FF441AE022800F0C082102384F8353081E599F800003A
:203DC0000193C307039204D4354B40F001001870C2E60A1B0420012105F0E4FF354B0193E0
:203DE000F0E503F00F0EBEF1030F7FF478AD314A082302910192137001F066FF02994BE515
:203E000002F0100303F0FF0403B32C4C042285F825204FF0010E112304F1180285F827005C
:203E2000A5F81CE00880029284F8353048E5019B1B789F077FF523AC204C10223C2384F82E
:203E4000352004F11802029233803BE50B881A484BB1D20740F19A80AC83EA8B934288BFC2
:203E60000A800B88AB83002285F82720ECE5052A7FF4B8AC0F4A002385F825300F4C8023EE
:203E80001370019201F020FF142384F8353004F11803029314E5024940F00200087059E612
:203EA00048270020A8270020882D0020682B002080270020602B0020842D002078270020FA
:203EC000742B00204A27002098F8000000F12801214491F801E0083000EBCE00296088F81F
:203EE0000000DDE50298019306F096F9019B00287FF4D4AD227E029BFF2AA3F1180300F090
:203F0000F78048F2FE00198B814200F0F1801989814200F0F38081B95A8972B99A8962B9DC
:203F2000DA8952B91B8A43B9628A994B2AB99A8A1AB9DB8A002B3FF4FEAD228B944B82B993
:203F40005A8B72B99A8B62B9DA8B52B91A8C42B95A8C32B99A8C22B9DB8CB3F5807F3FF4ED
:203F6000EAAD3388B3F5A06F00F2D782E379884C012B40F2C98203F049F800287FF4DBADBD
:203F8000E379844A013B0192E3711BE5AA8B002A3FF463AF1346028065E77E4B039E01930B
:203FA000FFF75ABB039C94F8352002F03F02022A5ED0784B019394F83520754B52073FF564
:203FC0004BAB93F82F0093F833A093F8329093F8318093F82C5093F82E1093F82D2093F817
:203FE00030E00130DFF8B4C1C0B283F82FA083F82E904FF0140A4FF03C0983F82D804FF0F7
:20400000500883F8330083F8321083F831208CF8005083F8305083F82CE083F835A0A6F8CD
:20402000009083F8348060B90131C9B283F8321039B90132D2B283F8312012B9013583F84D
:204040003050B4F828E0638D534D029FDFF850C12385A4F82AE095E80F0087E80F0028464D
:2040600005F11001ACF800E006F042F9FFF769BB4A4800210546039049480A462970014618
:204080000490BDF80400DFF820E1088002E014290A4678D0511C01983EF81220CDB282420B
:2040A000F5D10398DFF804C14FF0000E80F800E0714672467546604607E04A1C11460A29B7
:2040C00000F13000D2B200F0D68090F825E0BEF1000F6DD0BEF1070FEFD1002D00F0D0807B
:2040E00090F826E095F82620964588BF0546E4E748F2FE03218999427FF41DAD2189244B11
:2041000079B9598969B9998959B9D98949B9198A39B9598A29B9998A19B9DB8A002B3FF4BF
:204120000AAD218B1A4B81B9598B71B9998B61B9D98B51B9198C41B9598C31B9998C21B956
:20414000DB8CB3F5807F3FF4F6ACFF2A3FF4F3AC144805F08DFF024600287FF4ECAC012008
:20416000022105F01FFE0B4B01932BE4002333802B7017E500F12A020199042005F012FEC4
:20418000044B01931EE4034B0193039B1D7012E778270020602B0020802700204A27002072
:2041A00030270020902700205C2D0020742B0020302505FB017503980270C0491D60BDF836
:2041C000043091F800C091F801E088782B82C978BDF81430BA4A94F82C9094F82D8085F80F
:2041E00018C085F819E094F82EC094F82FE001276B82A876E9764FF0000A0FCA85E80F002C
:204200000323042285F8263085F8243085F816C0384685F82570AF8385F8149085F8158066
:2042200085F822A085F827A085F8232085F817E0FFF74CF994F8343003F0F002502A45D91F
:204240001909039A9F4B053982F800A01A78890004EB0A008A4507463CDA90F83C208AB3F6
:20426000012A2AD0022A0DD097F83D0050B382445FFA8AFAECE703990A70002D9DD15AE4DC
:2042800005461AE790F83DE0BEF1040FECD190F83F1090F83E701A7041EA07231A460399C6
:2042A000402B81F800A0049928BF40220B80864BEA832A840193FFF7BBBB0AF1010A5FFABE
:2042C0008AFAC5E71A70039B83F800A07E4B0193FFF7AEBB1A707C49039B019183F800A015
:2042E000FFF7A6BBD18DBCF8162091427FF459AD1EF0100F02D0BCF81C10F9B99CF8252069
:2043000002F00F01013907293FF6A6A901A050F821F000BF2F460000D94400004B450000D2
:204320005B440000274400000D440000B53D0000EF4300004EF0020EFFF7B9B90CF1180033
:204340000793CDF818C0FFF795F8604A94F8300013785F4983420493DDF818C0079BCDD1C1
:2043600091F831E050787045C8D191F8327092F802E0BE45C2D191F83310D2788A42BDD1F0
:204380009DF810709CF827108CF818708CF819008CF81AE08CF81B20F1B99CF824209CF841
:2043A00026009CF82210121AA2EBD102D2B2D0B20706114444BF5242D0B29CF82320C9B2B2
:2043C000A2EB92020244D2B28CF8221002EBD1018CF824108CF823209CF82420019801216B
:2043E0008CF8262000220170ACF81C2086E7019B1A78354BD4077FF52FA9002110228CF867
:2044000025101A7001F060FCFFF726B9019B1B78DA077FF521A9072200238CF825208CF8D4
:204420002630FFF719B93088DFF8A8A0002840F0968194F83530DB077FF50EA907220023CE
:2044400001208CF825208CF82630FFF73FF8019A1023137001F038FCACE4308828B1CDF80F
:204460000CC0FFF733F8DDF80CC094F8353013F001035ED0019B1B78D80756D50023072203
:204480008CF825208CF82630ACF81C300120DCE70D4A20238CF82500137001F015FCFFF7E7
:2044A000DBB80EF03F02022A7FF46EAC20E70EF03F02122A7FF468AC1AE700BF2C0C002050
:2044C000802700204B270020602B00206C2700207827002064270020019A1278D70707D5DC
:2044E00094F83520AA4902F03F02122A00F0B4800393019B20221A7001F0E6FB039B0022C5
:204500001B6883F8252056E500210A46032005F049FCA04B0193FFF755BA022000214FF445
:20452000A06205F03FFCFFF7A8B906238CF82530ACE7019A1278D10740F124810522ACF8BF
:204540001C308CF82520FFF787B894F83530D8072BD5D10629D4BCF81C30002B7FF47CA8AB
:204560003088CDF80CC0013080B2FEF7AFFF019831880378DDF80CC043F010020270854AF8
:2045800011B143F012031370CDF80CC001F09CFBDDF80CC0012108220023ACF81C108CF811
:2045A00025208CF82730FFF739BA9B060DD594F83AE094F83B30DAF80010308843EA0E23DA
:2045C0001944C31ACAF800103380308860B1D7060AD4019ACDF808C0137843F0020313702A
:2045E000FEF774FFDDF808C094F8362094F83730694903EB0223BCF820209BB29342049171
:204600000B8000D80BB9049B1A80049B1A88019BACF81E201B7899073FF41EA85F49002384
:204620000B80029101F050FB0299FFF735B9019B1A78584BD20738D5308803244021002288
:204640008CF825401970ACF81C200028E6D042221A70FEF73BFFE1E791F8343003F0F00273
:20466000502A47D94FEA131903984D4B0021A9F1050901701A780598019F4FEA89092118FB
:2046800048450191029164DA019A92F83C20002A5FD0012A5AD0022A10D0029991F83D107E
:2046A000002956D00144C8B2E9E794F8353003F03F03022B7EF4D0AFFFF7BAB9019991F84C
:2046C0003DE0BEF1040FE8D1864691F83E0091F83F101A7041EA00231A460197402B2E4925
:2046E000039F28BF402287F800E00B80ACF81E20ACF8202094F82DE094F82E2094F82C9064
:2047000094F82F40032325498CF815E08CF816208CF8253001208CF814908CF81740029147
:20472000CDF80CC0FEF7D2FE0299DDF80CC000230B80ACF81C30338088F80030019B4222E6
:204740001A7001F0C1FA0299FFF7A6B8411CC8B295E71A70039B01971A461070CAE7CDF8CB
:204760000CC0FEF7B3FE94F83530DDF80CC013F0010F7FF463AEBAF80030002B7FF41AAB59
:20478000FEF76ABF3388002B7FF414ABFEF764BF78270020602B002030270020842D002019
:2047A0004B270020030C80B2020A5BBA9BB242EA002043EA00407047704700BF08B50648C7
:2047C00001F0EEF8054BAA2201200021187059709A70DA7008BD00BF4D520000AC0D002003
:2047E00010B5114C0220A17904F01EF8A379112B0FD0062B0DD03A2B05BF94F8281094F893
:204800002930002143EA01210120BDE8104004F00BB8238D618D01209942A8BF1946BDE8FD
:20482000104004F001B800BF7827002070B413780D7A83F002039D42044614D00B891BB9DA
:204840004B89B3F57F4F2FD01E4A51F8085F13684E68012003F10801A0405E601D6011601C
:20486000C0B270BC7047487A53789842E6D1887A93789842E2D1C87AD3789842DED1087B92
:2048800013799842DAD1487B53799842D6D1887B93799842D2D1D379CA7B9A42CED1032339
:2048A00003FA04F0C0B2DCE78B89FE2BCCD1054DC9892A68022322F8021B03FA04F02A60EB
:2048C000C0B2CEE7380C002010B5084C2378012B01D0002010BD01460822A01C07F016FA7B
:2048E00000280CBF2046002010BD00BFAC0D002008B50146102003F0A5FF044B04489B6871
:2049000000219847BDE80840FCF722BC98C600001549000010B50C461146204606F0D0F88B
:20492000044B1B6813B19B6820469847024B1C6010BD00BF10130020BC0D00202DE9F041D1
:20494000154D07462A4600239078713230B101330C2BF9D14FF0FF30BDE8F081C3EBC3045B
:2049600003EB04142E19717003F0B4FEDFF830800A4A98F800301168C01A2F55B070CC18EE
:2049800003F0A8FE98F800202146821AF01C07F0EFF9B078BDE8F081C00D0020B80D0020D0
:2049A0004D2700202DE9F04F074683B092BB604E894636F8063C15469346FF244FF0FF3887
:2049C000DFF878A1002B37D1B8F1FF3F4DD0012D06F1B8062BD1B8F1FF3F23D0B82000FB24
:2049E00008F5DFF850810F2008EB0506A6F81290378203F033FF0146304603F05BFF05F1C7
:204A0000180040444021FEF757FB234658B203B0BDE8F08F474D00262C46238ABB422CD036
:204A2000B83436B3FF2358B203B0BDE8F08F36F8063C0125002BC7D03046FEF751FB68B176
:204A40003D4B26F806BCE9B29A7822B11A788A4208BF83F802B071335345F5D1B8F1FF3F33
:204A6000B5D136F8063C002BB1D1ECB24FFA84F8ADE7238A0126BB42D2D1638A002BCFD071
:204A80000F20019203F0EAFE0146204603F018FF019A0028C4D0F4B211462046FFF74EFFC5
:204AA0000028019A0CDB0028BCDDB82303FB06562346B28A1044B08258B203B0BDE8F08F4A
:204AC0004FF0000BDA461A4FDFF870904FF0B80837F8063CEBB156451BD038460192FEF794
:204AE000FFFA019AA8B100218E468C465FFA8AF008FB00535982104B997831B1197881425C
:204B000004BF83F802C00EF1010E71334B45F3D1F344B837BAF1000F07D0BBF1000F81D0CC
:204B200011462046FFF70AFFBDE74FF0010ACFE7540C00203C0C0020C00D00200C13002001
:204B40002DE9F04715090F2D07469A4602F00F043FD00F2C34D0A146A84666195DBB0F2E85
:204B600003DD5CB9E5B9BDE8F08707EB0800C6F11002002107F0D6F9002CF3D0DFF8748022
:204B8000C9F11000D8F8006038443146224607F0EFF8022C26D03444C8F80040BDE8F0872A
:204BA00038465146BDE8F04705F01CBC454620264FF010094C462A46384607F0D9F8CEE711
:204BC000A84605F11006002DF2D14FF010094C46D4E70F2C4FF01008E8D042464546A14602
:204BE000A618E9E70A2DD6D8FF22FE23FA723B73D1E700BF380C00202DE9F04FDFF8EC8271
:204C0000B04D89B0002788F800702F7003F04EFDAD4E3060042003F00FFE3368DFF8D0E297
:204C20001C785A7804F0F80100B2C029CEF8000042EA042274D0E02963D1297893F804902D
:204C400093F802E0D878C2F30A044B1D4A46214640EA0E202B70FFF7A5FEB0F1FF3F834641
:204C60005BD09A4AB82303FB0023B3F814A00123A245009734BF4FF0000A4FF0010A01930E
:204C800003F028FD2B788F4D834246D803F022FD2B7898F80080C51A08EBC9098C4AA9446E
:204CA000B9F57A7F156038D837B1316807EB080019442A4607F05CF8002C78D0009B53B122
:204CC00082494FFA8BF3B82000FB031305EB080292B29A821A84BAF1000F40F00D81019B4D
:204CE000DBB97C4B45441D807B4C236823B1FFF777FD23685B68984700F06CFE09B0BDE8BE
:204D0000F08FBB4600973C46744F2A78995C01F0E000602854D041291DD009B0BDE8F08FEF
:204D2000297893F802E0D878C2F30A040B1D3A46214640EA0E202B70FFF734FEB0F1FF3F49
:204D40008346EAD0614FB82303FB00770122336822370092D9E73946501CC0B2034403F1CF
:204D60002000D3F800A0D3F80490D3F808C0D3F80CE010338342C1F800A0C1F80490C1F898
:204D800008C0C1F80CE001F11001EAD118685B6808604B6098F800302932283388F800306C
:204DA000009B4FF0000A2A70D146019368E7019B002B96D0BAF1000FAFD0464B1C8093E76E
:204DC000981890F801900232DFF828A14FFA89FC1344BCF1000FCAF80030BCBF0133CAF8F2
:204DE0000030CA064AD501F0080303F0FF0E002B40F0AF81DAF800301A461B78C3F38303DC
:204E000043F060033B7012F8010BA7F802E0830803F0300343EA8013CAF800207B7001F08B
:204E2000040303F0FF02019233B9DAF8003013F8012BBA71CAF8003011F0030100F0968097
:204E4000274B5B5CFB7119F0400FC9F3011300F06181BCF1000FC0F298810022002B00F0FF
:204E60008D8020490878012800F0B5811E4A00239A4699461360009B019301E70B0700F116
:204E80006E81DAF800301A4633F8010F9B78A7F80100FB70787812F804EB00F00F000192ED
:204EA00002464FEA9E0303F0300040EA8E10104303F00F03019A43F06003CAF800203B70CF
:204EC0007870ACE74D270020B80D00203C0C00200C1300206427002010130020782700208A
:204EE000F0C50000AC0D0020300C00204C270020340C0020380C00204FFA8BF7B82101FBD1
:204F000007F1DFF834A3C2480AEB010319461A8C9C822231BF4E06F02BFFBD4B06F24C59A0
:204F200016F8012C22B116F8031C8F4200F03B8171364E45F4D100221046B823FFB203FBB8
:204F400007AAB54B5FFA8BFCAAF8122003F24C519A781AB11A78624508BF987071338B4204
:204F6000F6D1019B002B3FF4BCAE26E7DAF8003013F8012BFA71CAF8003064E707F1080216
:204F800004920593A54A0F20D25CCDF80CC0029203F064FC05990346029A0498FFF7D0FD3D
:204FA000DDF80CC009F0080303F0FF0209F0030E002B36D019F0040F11D1994A0EF1FF330B
:204FC0001288012BADF81C2040F21881954B07F1180013F80E2007A90023FFF7B1FD98F82F
:204FE000002002F1280388F80030019B002B3BD1DAF800303268DFF844929B1A2B70002C2B
:2050000000F09A80A4F128031A127B713A71BB79112B00F0C080009B4FF0000AD1460193D4
:205020002EE619F0040F00F0C880BCF1000FC0F2DE807D490B78012B7FF418AF4B789342F5
:205040007FF414AF794A754B102013F80E901160029103F003FC029903464A46023107F129
:205060001800FFF76DFDBAE7DAF80030197801F0F801F029BED11121B971187800F0F30122
:20508000F03900F00400C0B20329C4D8DFE801F0382F2002597802330909A1F5756189B2B9
:2050A000090241F0F001398513F8011C01F00F01A1F5756189B2090241F0F0017985CAF848
:2050C0000030002800F0BC80303288F8002091E759780433A1F5805189B2090241F0F001FB
:2050E000398533F8021CCAF800307985E9E7B3F801100433398513F8011CA1F58051D9E7E9
:20510000B3F801100533398533F8021CCAF800307985D6E7464A0F20D25CCDF80CC00292D5
:2051200003F09CFB029A0346424907F10800FFF707FDDDF80CC035E703F0CCFA99F8002054
:2051400098F80030801A0344283B1A127B713A715DE7002360223A707B707B805FE6DAF8F8
:205160000020602310463B7010F8013B03324FEA930E0EF0300E03F00F034EEA03037B70CE
:205180000388CAF800207B8049E62A7831680A449278120962E6BB884FF0000ABB85009B1B
:2051A000D14601936CE516F8020C314603EBC000009306F0DDFD009BBAE61D4B102013F871
:2051C0000E9003F04BFB4A4603461A4907F11800FFF7B6FC03E7487890427FF447AE134AC3
:2051E000881C116007F1080205900492CAE632682B7813449A7802F00F021AE7DAF8003011
:2052000013F8012B8DF81D20CAF80030DEE600BF78270020C30D0020C00D00200CC60000B2
:20522000ECC5000008C60000AC0D0020300C0020F4C50000F8C500003C0C00204D27002048
:2052400033F8021BF985CAF800303DE72DE9F04FB34EDFF8FCA2002387B033708AF80030F8
:20526000054603F06DFA03F021FAAE4C04212060092003F0D9FAAC4B1B680BB1FFF7B0FA17
:2052800004A80190002D00F0A682294603F012FBA64B1B883E2B36D99AF80070D4F80080C3
:2052A00000230237A24D08F80730A24808F102032B60FFF709FB002800F00F8108F1030358
:2052C0002B604FF08009DFF874B29BF801209BF80010130943EA0113DBB2980840EA8313DD
:2052E000DBB210075FFA83FE5FD1BBF8020000285BD1080740F0F98012F0F00F40F0F58099
:205300007823029361E0DFF834B29AF800C0DE4623680CF10105EDB241221D441A700BF172
:20532000200877460FCF474528606960AA60EB600EF1100E05F11005F3D1BEE8030028605B
:20534000696033780CF1290C28338AF800C033700199102003F076FA774B744D1B68984755
:20536000724B0028B3F8009036789AF80080ACBFC0F17D076827C6EB0902C8EB0703B8BF2E
:2053800015209A4240F3B880C0F178031E46029302F0B0FE99FBF6F909F101098145C0F2CD
:2053A000D980002007B0BDE8F08F090703D112F0F00F00F084802A68DBF800001346106092
:2053C00003F804EB2B60602302939BF80630112B00F005822A6802F8013B9BF807302A60A8
:2053E000402B00F00582FF2B00F02282012B61D02A6802F8013B2A60BBF808304F4A3BB9E6
:2054000053892BB993891BB9D389002B00F044824B48FFF759FA4B4B1860002800F07781A5
:20542000427818F80730042043EA021308F807304349454AFFF7FAF960F03F005FFA80F969
:205440009BF818303D49FF2B00F08F8101F118000391FFF739FA3B4A03991060002800F051
:20546000CC8118F8072043781831134308F807300020019AFFF7DAF949F004095FFA89F972
:2054800049EA00002F685FFA80FE9BF806302822112B3270294900F0108123689AF800204A
:2054A0009DF80800FF1A991898548AF8007081F801E04DE7029B43F0010302939CE729689C
:2054C00023F03F031343214A0B701288CB1C2B606823A1F80120029377E71948FFF7F4F9B3
:2054E00000287FF4EBAE8146EDE62B68702203F801EB02922B6068E720680BEB060140445B
:2055000006F036FC28884044801B80B203F0C8F80198FFF7EDF9012007B0BDE8F08F00BF7F
:205520004C270020B80D00201013002064270020380C00209027002034C600007827002011
:2055400080270020300C0020702700207A2700204D270020C24BD4F8008093F80090C14E99
:2055600041464A46002308F10400336006F076FC2B88DFF818E36FEA83436FEA9343BA4A22
:20558000C3F3072309F104095FFA89F988F80030BEF8003028881178C9EB070703F1010CB7
:2055A00027F007071A0A88F80330B04EAC4B88F8010088F8022059443A4608EB090083F843
:2055C0000090AEF800C0376006F0D2FB07EB090080B203F065F802F093FDA54F804600289A
:2055E0003FF4DFAE0198FFF783F9404602F0D6FD404602F0BDFD9B4B1B68012B3FF4D1AE1C
:20560000043B012B7FF6CDAE2B883A686FEAC3436FEAD3439449C3F3072391F800801370C3
:205620003368029943442D881FFA83F88C4B21F007000521557030601970374632E0D6F814
:20564000009020684A450346B8BF91469AF80050B8BF3A6083F804E04A46284406F088FB45
:2056600009EB050080B203F01BF802F049FD054600283FF496AE0198FFF73AF9284602F0B5
:205680008DFD284602F074FD764A336812689844012AA2F104031FFA88F83FF482AE012B11
:2056A0007FF67FAE734B0BEB08011B884FEAD80E9845C8EB0302C2D32DE74FF2B0020B8D00
:2056C0005BBA9BB223F00F0080B290424A8D52BA92B200F0B28002F47F42B2F5704F00F0EC
:2056E000308103F47F43B3F5704F00F0FA80624BF0223A7018687B1DC7F801001F465F4B1F
:2057000030221B88327027F8023B2F60C5E648F2FE03BBF808205A499A420FD14B8B6BB9ED
:205720008B8B5BB9CB8B4BB908310420554AFFF77DF840EA09005FFA80F981E6D5F800C085
:20574000DFF84CE10CF110032B60BEE80F00CCF80410CCF80000CCF80820CCF80C309BF8DA
:2057600018304749FF2B7FF471AE91F819C049F0080EBCF1020F5FFA8EFE4B8B00F0BC803F
:20578000002B43D18B8B002B40D1BBF81E303C48002B3BD1038C33B9438C23B990F82430BA
:2057A000002B00F0DA80BBF82020354B72BB93F822205ABB2F6849F0090E3A4602F801CBC5
:2057C00053F8231F063747F8051C1B795FFA8EFE13712F6059E62C4903F06CF858E5029B2E
:2057E00043F0040302939BF80730402B7FF4FBAD029B43F002030293FEE548F2FE030A8B6D
:205800009A4202D14B8B002B5BD0CE46D5F80080DFF880C008F11007BCE80F002F60C8F823
:205820000000C8F80410C8F80820C8F80C302CE6029B43F003030293DEE522F00F0C84457A
:205840007FF449AFF3233B704B8D0A8D1B0A120A03EB021303F5AA637B70BB1C4EE700BFAE
:205860004D270020BC0D00204C2700200C130020B80D002064270020A0270020A627002075
:2058800078270020702700202CC60000342700208027002090270020138A002B7FF4B8ADE7
:2058A000538A002B7FF4B4AD938A002B7FF4B0ADD38A002B7FF4ACAD49F040095FFA89F943
:2058C000BEE58B8B002BA0D1CB8B002B9DD11831019AFEF7ABFF40EA09005FFA80FE2F6860
:2058E000D3E5F2233B70BBF82830244A1B0A7B7012883B1D7A8001E7002B87D18B8B002B0F
:2059000084D1CB8B002B7FF440AF0B8C002B7FF43CAF4B8C002B7FF438AF8B8C002B7FF41E
:2059200034AF91F82630002B7FF42FAF2F6891F8273049F00B0E07F8013B5FFA8EFE2F60B1
:20594000A3E5F1220E4B3A701A883B1DA7F80120BBF82A20120AFA70D0E62A6849F00A0ED3
:20596000134603F801CB30F8251F171D80785FFA8EFEA2F801102F60987086E5A2270020F4
:20598000A027002008B50548FDF79EF900B908BD0248BDE80840FDF78DB900BFB8130020F2
:2059A000014B1860704700BFC813002000B5074B83B08DF80700186828B1054B0DF107023C
:2059C0001978FDF715FB03B05DF804FB542D0020CB31002008B5022100220448FDF708FB29
:2059E0000349044A00230B80137008BDD8040020642700204727002070B52C4C2388002B6F
:205A000035D0B3F5A06F2DD8294B1A8B6AB95A8B5AB99A8B4AB9DA8B3AB91A8C2AB95A8CA2
:205A20001AB99A8C0AB9DA8CE2B11B7EFF2B1FD0204804F01DFB10BB1E4804F0D3FD06464A
:205A400008B304F0B7FD054618B3284601F074FB40B9284605F000F898B104F0F5FF164B19
:205A60001B6853B9154A00231370238070BD70BD114B1B68002BF5D000209847F2E70D4D94
:205A8000E3E7208070BD04F063FF05460028DCD1E8E7F36923B11B6A93F8940000F022FA4A
:205AA0003046BDE8704004F0D9BD00BF642700207827002090270020C81300204727002008
:205AC0002DE9F041038882B00446DBB140F23630834211D1022900F0B48038D8002900F035
:205AE000A48001292CD15AB3684B05201A60FDF78BFDFFF781FF23E000230320238002B06C
:205B0000BDE8F0811846624921F833000133142B5F4AF9D15F49604809680370C2F8A01096
:205B2000FDF7A6F95D4B1870FDF7A2F95C4B402118705C48FDF7AAF8FDF7E2FC01F082FC08
:205B400040F236330120238002B0BDE8F081872940D08829F4D1534B9A420CD0524B9A4219
:205B6000EED11046FDF7B0F80028E9D004F090FBFFF742FFE4E710460192FDF7A5F8019AFD
:205B80000028EBD0DFF83081484E002147460B46474D317005E033780133DBB2072B3370AA
:205BA000DCD803EB430308EB031393F82530002BF1D03C480192FDF77DF83378022003EBED
:205BC000430307EB03132B60FDF71EFDFFF714FF019AE0E700231F46344E364D337055F8F5
:205BE000043C9A4240D0337808350133DBB2132B3370F4D9304B002503F5C070996A3033F4
:205C00008A4204BF43F8085C03F80B5C8342F5D12A4B002503F5A070996920338A4208BFDF
:205C200023F8105C8342F7D18AE7002A88D0204B03201A60FDF7E8FCFFF7DEFEFFF7A2FE15
:205C40007EE71F4D2B88002B3FF47AAF1D4B9A79062A14D00120FDF7D7FC2B88002B3FF4B1
:205C60006FAFFFF7C9FE6BE735F8080C0192FDF7A9FC25F8087C45F8047C019AB3E793F86C
:205C800035309B07E6D5FFF77DFEE3E7682B0020141300208C09002050270020CA310020A6
:205CA000CB310020B8130020B83100204F270020702B00201C130020742B0020882D0020A0
:205CC0006427002078270020F8B51D4B1B68002B32D003F128061B4A127852061CD51A4FD2
:205CE00000241D8A3C70194A012105E0152B02F108020C4619D0194632F8080C4B1CA8425D
:205D0000DBB2F3D152F8040C0028EFD0002386E809003C70FFF736FE306860B10C4B7268A7
:205D20001978BDE8F840FDF763B93970FFF72AFE30680028F2D1F8BD064A16681836CAE719
:205D4000702B0020602B00204E2700201C130020CA310020682B00207F2801DD7F2910DD11
:205D6000884205DD401A0F28CCBF00200120704705DA081A7028D4BF00200120704700201F
:205D8000704701F58071081A1028D4BF00200120704700BF80B183698B420DD070B50D4682
:205DA0000446064E1946306802F0F6FB3068294602F0E8FBA56170BD704700BFE8040020DA
:205DC00038B50D4604460021102206F0ABF82A7D294607322046D21005F0CAFF2046BDE8ED
:205DE0003840014904F0FEBA7027002070B50D4684B080B1064629B3037D0A7D9A4217D0AF
:205E000068463146FFF7DCFF68466C4604F04EF918B104F019FA4DB16C4629462046FFF7A6
:205E2000CFFF204604F042F90146A8B104B070BDD20805F06BFF0028E2D1727D6B7D9A42B7
:205E4000DED1F3E701466846FFF7BAFF684604F02DF90028DDD1E9E72046012204F088F9A9
:205E6000E4E700BF08B504F0F7FD04F0EDFD034B01461868BDE8084002F054BBE804002006
:205E800008B5074B0146186802F090FB30B1054B01461868BDE8084002F044BB08BD00BF55
:205EA000E804002094060020024B0349186802F0F7B900BFE804002089630000024B014616
:205EC000186802F02FBB00BFE804002008B5044B0146186802F06AFBBDE8084004F0DABDF9
:205EE000E804002008B5154A92F895301BB192F89430834201D0002008BDD168B2F8A230E1
:205F0000888B9842F7D18B7C0C4813F0800F03F1010308BF03F07F038B7492F89630074A0B
:205F200013F0800F03F1010308BF03F07F0382F8963000F043FF012008BD00BFCC2E00206A
:205F40002DE9F041802A86B00446154690F838601BD88846EEB900F12407314638461022AA
:205F600005F0E0FFEA1D4146D208384605F000FF40233046394684F8385084F83930FFF73C
:205F800035FF012006B0BDE8F081002006B0BDE8F08106466F4656F8240FF3687168B26824
:205FA0000FC730697169102203C73046002105F0B9FFEA1D4146D208304605F0D9FE40234B
:205FC0006846314684F8385084F83930FFF70EFF012006B0BDE8F08138B50446D0F8900034
:205FE0000D4620B104F048FC0023C4F8903075B194F89B30B4F8A410284601FB03F104F077
:2060000079FCC4F89000003018BF012038BD012038BD00BF38B50B4C94F8951009B100207E
:2060200038BD05464FF4A872204605F07BFF0123204684F8945084F8953000F0DBFE204694
:2060400038BD00BFCC2E002038B5154D95F895301BB195F89430834203D0FFF7DBFF054601
:2060600070B105F1100405F19002944208D295F8253013B906E0637D23B14034A242FAD84B
:20608000002038BD20460021402205F04BFF4FF6FF7301222562A38323826275204638BD65
:2060A000CC2E002070B5064610460D4604F0FAFCA8B10C4B0146186802F06CF9044670B189
:2060C000FFF7DEFE26606B8AA3806B7E237320B1838C13B94FF400738384204670BD0024B1
:2060E000204670BDE804002010B504460846FFF7B9FE18B10368A34218BF002010BD00BF5B
:2061000010B504460846FFF7ADFE38B1036823B11B6AA34218BF002010BD184610BD00BF41
:206120002DE9F0411E4E0546306802F007F9044668B34FF6FF78002705E02146306802F0B9
:20614000C5F80446A0B123689D42F6D1A3884345F3D01FB32B6A21469B6838469B6898470F
:2061600021460746306802F0B1F804460028EAD16FB128463946FFF70DFE2B6A21469B68FE
:20618000A8691B699847A8833846BDE8F0814FF6FF730027AB833846BDE8F0812746CCE70C
:2061A000E80400202DE9F843C468B0F8A230A28B05469A42A6696BD008680F46FFF7B0FFD4
:2061C00000287ED039688C4206D0AB682046DB6898470446002C71D0E868A04216D001F0A9
:2061E00075F894F83930E86803F0400303F0FF01002B40F08A8090F839305B0600F18B8011
:206200000123A375EB6800229A75EC60AB6828465B699847AB68A0691B6900219847A0838B
:206220007EB3238A98422CD34FF6FF7290423AD0216AB1F8A0206ABBA069B04225D0FFF716
:2062400045FE01462846FFF7C7FE95F8973093B11EB13046002105F08BF895F89630284654
:2062600013F0800F03F1010308BF03F07F0385F8963000F0B1FD284600F0A0FD2046BDE871
:20628000F8832082A069B042D9D12046BDE8F8832046A2E7B1F8A2101344B0FBF1F093FBFB
:2062A000F1F39842C8DDE8680021FFF773FD95F897301BB13046002105F05AF80020BDE8E1
:2062C000F8833B689C4287D105F1100705F190084745F3D204464FF6FF7909E0AB68204615
:2062E000DB683946984704464037B8457FF672AF7B7D002BF8D0BB69002BF5D09B884B45F7
:20630000F2D0002CEAD13C46EEE704F124012430FFF76CFD74E72430FFF768FD70E700BF90
:2063200038B50568AB69834201D003B138BD4FF6FF71AA7DA983002AF8D02A6A0446D2F80E
:20634000900030B104F098FA2B6A0022C3F89020AB699C42EAD12046002105F009F828468C
:20636000BDE838400021FFF715BD00BF10B50446FFF7D6FF034B2146BDE81040186802F062
:20638000EBB800BFE8040020FFF7F0BF30B50F4C83B00546206801F0D1FF014628B912E0C9
:2063A000206801F093FF014668B10B68AB42F7D108460191FFF7DAFF0199206801F086FF03
:2063C00001460028F1D103B030BD00BFE804002038B5837D044613B90023637538BD002509
:2063E000857500F073FF94F839305B0605D42046FFF7CCFF0023637538BD294604F1240073
:20640000FFF7F4FCF3E700BF70B583690446934215460E4609D0837D2BB11046FFF756FDCA
:20642000214600F065FF2E6070BD0021FFF7B2FC4FF6FF72A37DA283002BF4D0236AD3F8DF
:2064400090000028EFD004F017FA236A0022C3F89020E8E7044B93F8950020B1D868837D57
:20646000002B08BF00207047CC2E0020064991F8953033B191F8942082420CBF084600207E
:2064800070471846704700BFCC2E00202DE9F047DFF838A10A8ABAF818300C469A4201D0CD
:2064A000BDE8F0870546087EFFF7CEFD07460028F6D021462A463E6AFFF7F4FD814600289E
:2064C0007DD0637E04F13C08037394F851305B066ED40123BB75A37DF0223B75217D3846DD
:2064E000F974E17DB974C6F808A0617DF76086F8971086F89620228C4946A6F8A020628C27
:20650000A6F8A220A27E86F8982094F81BE0724486F89C2086F899E0227F86F89A20627F9D
:2065200086F89B20E28BA6F8A420E268D4F804C0D4F808E0D4F800A0C7F804C0C7F800A077
:20654000C7F808E0FA60D8F808C0D8F80CE0D8F80040D8F80420C7F82CC0C7F830E07C628A
:20656000BA62D8F81420D8F81040BA637C63FFF711FCB36830465B699847B36848461B697B
:2065800000219847104BB8831A683882AAB1304600F014FC30462946FFF71EFD96F897300D
:2065A000002B3FF47DAF3046BDE8F04700F014BC41460020FFF71AFC8BE71E60E7E786F850
:2065C0009500BDE8F08700BFC82E0020FC04002078B32DE9F04106464FF6FF78154D82B007
:2065E00000F1100400F19007637D43B94034BC42FAD1304602B0BDE8F04100F0DFBBA4F8D1
:206600001C80286801F09AFE01460028EED00B68A34208D0286801F059FE01460028E5D06C
:206620000B68A342F6D108460191FFF779FE0199F0E77047E80400204FF6FF7370B58A88CC
:206640000C469A420646096816D0086AB0F8A03043B9012521463046FFF7A4FD0446B0B13E
:20666000284670BD0D8AB0F8A2102B4493FBF1F3B2FBF1F29A42ECDD2046FFF751FEF36872
:206680009B69A34201D0002070BD0025E2E73046FFF79EFF204670BD2DE9F8430646087E46
:2066A0000C46FFF7D1FC0546002800F0958030462F6AFFF7D7FB78B1D0F80080B8F1000F4D
:2066C0000AD03046FFF7CEFB064610B1036898457CD000239B80FFDE324628462146FFF7AC
:2066E000E1FC0646002879D0628A3E4BB280188B218ABA68884218BF00239A425FD197F88A
:206700009720637D9A425AD1D7F8A020236A9A4255D1B7F89820638B9A4250D1B7F89A2002
:20672000A38B9A424BD1B7F8A420E38B9A4246D1234601226A75217D2846E974A17D2975CF
:2067400094F817E0314685F812E0D4F80090D4F80480D4F808C0D4F80CE0C5F80090C5F8CE
:206760000480C5F808C0C5F80CE053F83CCFD3F804E0D3F80890D3F80C80C5F824C0C5F84A
:2067800028E0C5F82C90C5F83080D3F810C0D3F814E0C5F834C0C5F838E0FFF7FBFABB681D
:2067A00030461B69002198473146A88328823846FFF742FF637E28463373BDE8F883304653
:2067C000FFF7D4FD00206875BDE8F883404629463246FFF719FE87E7BDE8F8836875BDE84B
:2067E000F88300BFFC04002038B5124D286801F0A5FD044630B91CE02146286801F066FD56
:206800000446B0B12368002BF6D01A6A002AF3D0627BD107F0D522F0010262732146186A93
:20682000FFF70AFF2146286801F050FD04460028E8D138BDE80400202DE9F8434C7D0B468D
:20684000022C01D0BDE8F883B94E0C7E96F895201AB196F89420A24204D01946BDE8F84341
:20686000FFF714BE96F8253007460C463BB106F11000102205F04AFA002800F0D78096F873
:2068800065303BB1AB482146102205F03FFA002800F05981F268B6F8A230928BDFF89082EB
:2068A0009A42CFD038462146FFF7F6FE05460028C8D0B8F8A220638A9342C3D34FF6FF7203
:2068C000934242D094F850201AB194F85130590642D4AA8BB6F8A230DFF854929A420BD15E
:2068E0004FF6FF73628A9A42ACD099F89E30013389F89E30BDE8F88399F8991099F8982018
:2069000001230A448C499340A1FB03239B09EB633846FFF7A7FA804610B103689D4221D0D2
