:020000040000FA
:2000000000500020E9000000E1000000C9000000E5000000E5000000E5000000000000002E
:20002000000000000000000000000000E5000000E500000000000000E5000000E50000002C
:20004000D1240000E50000003D2A0000E50000006D1D0000ED210000E5000000E500000018
:20006000E5000000652A0000E5000000E5000000E5000000E5000000E5000000E5000000AE
:20008000E5000000E5000000E5000000E5000000E5000000E5000000E5000000E500000038
:2000A000E5000000E5000000E5000000E5000000E5000000E5000000E5000000E500000018
:2000C000E5000000E5000000044B1A68B2F5806F03D01B689B0500D4FEE7704728ED00E094
:2000E000FEE700BFFEE700BF08B504F041F9104A104B9A420DD2D0430F4918440B4620F035
:2001000003000430084453F8041B834242F8041BF9D10A480A494FF000028842B8BF40F8AB
:20012000042BFADB00F018FCFFF7CEFF08BD00BF000000209817002064F30000981700205B
:200140002F45002038B5038805464BB1B3F5147F02D169B1012038BD00230380032038BD50
:200160000B4801F095FE4FF414732B80012038BD0C46E0B26FF001010134002201F01CFC78
:20018000092CF6D14FF414732B80012038BD00BFD4D6000010B50388044663B140F22D2240
:2001A000934204D140F22D232380012010BD00230380032010BD044801F0DAFF40F22D2354
:2001C0002380012010BD00BFF904000038B5038804466BB140F24522934205D1184803F05D
:2001E00025FBA8B9012038BD00230380032038BD144801F04DFE12482A2103F0F9FA124B2A
:200200001B68DB0208D440F245232380012038BD0B4803F0F7FAF2E70C4D0D48297802F0FE
:2002200059FC2B7843B9FF232B704FF6FF704FF4784100F0BFFFE6E700232B70F5E700BF89
:20024000CC170020FCD60000C02002406C3A002020D7000038B5054C04F51065204604F5DF
:20026000907400F019FEAC42F8D138BDA004002010B50446064801F00BFE04F108001E2170
:2002800000F070FCBDE810400A2001F0F9BD00BF3CD7000010B50388044663B1B3F52D7F68
:2002A00005D10B4B1B788B420DD0012010BD00230380032010BD074801F0EAFD4FF42D7347
:2002C0002380012010BD0448FFF7D2FFF6E700BF723A00204CD70000A418002001280ED00C
:2002E00002280BD138B5074C04F5D865204604F5907400F0D1FDAC42F8D138BD7047FFF708
:20030000A9BF00BFA00D002008B50D4801F0C0FD0C4801F0BDFD0C4801F0BAFD0B4801F0EA
:20032000B7FD0B4801F0B4FD0A4B1B7813B10A4801F0AEFDBDE80840084801F0A9BD00BF27
:2003400090D70000A8D70000BCD70000D4D70000F0D70000703A00200CD8000034D80000F8
:2003600030B50446164B1422427016211722152083B0E1702271A070188800F01FFE052067
:2003800000F022FF00204FF0FF310E4A01F014FB2378611D009304F1230204F141030A4814
:2003A00002F098FB251D14F8011F084802F092FBAC42F8D10A2003B0BDE8304001F060BDC4
:2003C0008E1700205CD8000068D8000084D8000010B5084801F05CFD0749084B012400223F
:2003E00007480C701A7001F053FDBDE81040054801F04EBD8CD800006F3A0020713A002031
:20040000DCD80000F4D80000F0B5064683B0082100F0A8FB71783148090902F05BFB7278D6
:200420002F49684602F074FB72782C490DF1010002F06EFBB2782A490DF1020002F068FB8A
:20044000B27826490DF1030002F062FBF278244901A802F05DFBF27820490DF1050002F021
:2004600057FB32791E490DF1060002F051FB1D4F32791A490DF1070002F04AFB1A4B3A7809
:2004800003F108000DF1FF3113F8014F11F8015FA54218BF00228342F6D114483A7002F00A
:2004A00019FB16F8012F0D491209684602F030FB0F4801F0EDFC0F48082100F053FB304649
:2004C000082100F04FFB6846082100F04BFB084801F0DEFC00233B7003B0F0BD0CD900007E
:2004E00010D900006F3A0020F317002014D9000024D90000F417002010B52F4B1A785AB12F
:20050000712833D02D4A1378072B4ED82C4C591CE0541170012010BD61381128FAD801A30D
:2005200053F820F0750500001505000015050000150500001505000015050000150500004A
:200540008105000087050000150500001505000015050000150500001505000015050000ED
:2005600095050000150500009D05000000221A70012010BDFFF76EFE0220FFF7AFFEC9E7B4
:20058000FFF7C2FEC6E70F48FFF7EAFE0E4801F07FFCBFE70D48FFF76BFEBBE70C4B1B781B
:2005A0003BB90C4801F074FCB4E70648FFF72CFFB0E7FFF70DFFADE76F3A0020713A0020C7
:2005C000F4170020FC17002020D90000A4180020703A002028D90000F8B504460D46164677
:2005E0001F460A2100F0BEFA217801F00F0129702178C1F3021131702078C00938702B78E3
:20060000072B06D8327810B9052A04D9F8BD052A01D90020F8BD072B01D00120F8BD032AB2
:200620008CBF00200120F8BD38B5134C002301461C222046637725460DF018F820462346FE
:200640001D3401E0A34207D0191A13F8012B203A5E2AF7D900236B54042000F0B5FD074B96
:20066000188800F0ABFCBDE8384000204FF0FF31014A01F0A1B900BFAC1700208E1700209A
:2006800038B503780C461546072B4ED8DFE803F00C11161B202539040B78002B5CD0012B5D
:2006A00064D0022B5DD038BD3348BDE8384001F0EFBB3248BDE8384001F0EABB3048BDE83A
:2006C000384001F0E5BB2F48BDE8384001F0E0BB2D48BDE8384001F0DBBB022000F074FD55
:2006E0002B783BBB2378294803EBC30300EB431000F048FCBDE838400820D221244A01F098
:200700005BB9022000F060FD2B78E3B923781F4803EBC30300EB431000F034FCBDE83840E6
:200720000820D2211B4A01F047B91B48BDE8384001F0AEBB2378194803EBC30300EB431080
:2007400000F020FCD6E72378144803EBC30300EB431000F017FCE1E71148BDE8384001F0B5
:2007600097BB1048BDE8384001F092BB0E48BDE8384001F08DBB00BF60D9000078D900007F
:20078000C0D9000028DA000088DA0000A0040020F0DA000004DB0000A8DB0000A00D00209F
:2007A00018DB000074DB00004CDB000030B5038883B004467BB1B3F51B7F07D1882927D0F5
:2007C0004FF41B730120238003B030BD00230380032003B030BD3A4801F05AFB2A213948E7
:2007E00003F006F803F0F6F8374B384D187003F0F1F8374B29461870364800F0D9F900F013
:200800005BFD00F059FE2979334802F063F9D7E72E4D3048314900F0CBFA2B79032B0DD03F
:20082000002B3CD12E4D297811F0010143D0254802F0E8FF2B7801332B70C1E7294801F08C
:2008400027FB05F10A000A2100F08CF9AB7AFF2B2BD005F10A000DF1050100250DF106025D
:200860000DF107038DF805508DF806508DF80750FFF7B2FE0028A3D00DF105000DF1060196
:200880000DF10702FFF7FCFE0F4B154A1978164803F038F90F480D4900F08AF9C2E7134871
:2008A00001F0F6FAAB7AFF2BD3D105F10B00A91DFFF7BAFEE8E72A460D4803F023F9B6E7AF
:2008C000B4DB0000DC170020723A0020A41800206D3A0020EC170020ECDB0000A017002046
:2008E0006E3A002008DC00002804002030DC00003804002038B5124C124801F0C9FA2368B4
:2009000014209B6B984723680F20DB6B984723681720DB6B98470C4801F0BAFA0B4B4FF466
:2009200000454FF400041D6009481C6001F0B0FA084B78201D601C60BDE8384000F08AB813
:20094000B4010010C8DC0000D8DC0000A020024084D700009020024010B5304C30482368E7
:2009600001215B689847236801210A461B682C48984703F0F3FD01F0EFFD01F06FFD00F0D3
:20098000CBF801F093FD27492748284A012303600B60136803F0E6FD01F05EF901F086F8C8
:2009A00003F010F901F038FA03F01CF841F2342003F036FA01F0B4FB03F0A8F91C4801F0DE
:2009C00067FA4AF6305200211A4802F083F81A4801F05EFA0021194803F0C8F802F0D4FD61
:2009E00002F04EFE164802F079FD01F023FA00F047F900F0EFF800F013F9FFF77BFF114819
:200A0000002103F0B3F803F007F8044601F02AFA14F0FF0FF7D101F013FCF4E7D801001028
:200A200000400340080009400C4009402C200940E8DC000000DD000018DD00009C14002052
:200A4000B0DC000074140020014B00221A707047733A002038B51D4C054623680020DB6956
:200A60009847236800205B6A984723680020DB6A9847174B0121174A196013689B07FCD52D
:200A8000154B0F201B6817211B684FF4C042984740F20A21114A124B1160124801221A70D8
:200AA00001F0D6FC104B002D1A6822F001021A600BDD0E480E4A90FBF5F00E4C41082060B1
:200AC00011601A6842F001021A6038BDB80100102820086028200840B4010010040001406C
:200AE000733A0020780400200C000140006CDC02300001402800014010B5064C0420236856
:200B00005B699847236804205B6B98470128F9D110BD00BFB801001010B503F01FFD044678
:200B2000FFF7EAFF0B4B4FF4A0601B68DB699847094B0121094A196013689B07FCD5084817
:200B400001F086FC0CB903F00DFDBDE81040FFF77BBF00BFB8010010282008602820084073
:200B60008C040020F8B50F4681B105464618002494B1A20714D023070ED015F8011B0A486F
:200B800001F0A8FFB54204F10104F1D13946BDE8F840064801F09EBF0A2001F071F9ECE7BA
:200BA000202001F06DF9E6E758DD000048DD00004B79022203F0FC0310B462F383034FF4BB
:200BC00092740022CC804B710A715DF8044B80E80600704700B585B004A8022320F80C3D85
:200BE000694601F051FD01280CD0BDF80610094801F070FFBDF80A10074801F06BFF05B058
:200C00005DF804FB0099054801F064FF05B05DF804FB00BF34E000004CE0000060E00000FE
:200C2000F0B50A2483B080250027631E13F0FF04694615D040F2034301A80197ADF8043035
:200C400001F022FD01280C480ED19DF802506EB2314601F03FFF6B06E7D0304603B0F0BD7D
:200C60006EB2304603B0F0BD00996EB2034801F031FF304603B0F0BD74E0000060E00000EF
:200C8000F0B583B001F038FE01F068FD012802D0324801F0FDF801F0EFFC002859D03049FE
:200CA0004FF435722F480CF061FB2F4E2F49304B304C012502200322002737702570087047
:200CC0001A7001F04DFEA84202D02B4801F0E0F801F06AFC01F054FE01F078FC274B284A73
:200CE000184601A9DA6101F0CFFC244C012814BF24482548019901F0EDFE204601F016FDD0
:200D000062880128214C14BF21482248019901F0E1FE01A9204601F0B7FC628801281B4C15
:200D200014BF1D481D48019901F0D4FE204601F0FDFC012814BF1A481A486288019901F034
:200D4000C9FE01F099FC10B9174801F0A1F803B0F0BD164801F09CF8A1E700BF84E00000A6
:200D600060DD00001C04002190030021750300217903002138030021C8E00000F8140020DB
:200D800020150020ECE000001CE10000BC14002048E100008CE10000C8E1000004E2000020
:200DA00038E2000078E20000B0E20000A8E0000070B505460E461B4C82B0FFF761FF0023CF
:200DC000204601A92662E561638001F05DFC01280AD00146144801F07DFE62881348019917
:200DE00001F078FE02B070BD01996288104801F071FE104801F04CF800F02CFF6FF03F0526
:200E00002D1A6388074E022BECD000F023FFC542F7D47288022AE5D00199074801F05AFE71
:200E200002B070BDD414002090E30000C0E3000004E4000044E400004CE4000010B5044666
:200E40001048214601F046FE94F85F30032B17D8DFE803F0110C07020B48BDE8104001F04D
:200E600017B80A48BDE8104001F012B80848BDE8104001F00DB80748BDE8104001F008B8B1
:200E800010BD00BF74E40000ACE4000098E40000BCE4000080E4000010B5044608B1FFF7A0
:200EA000CDFF14F1600001D0FFF7C8FF14F1C00003D0BDE81040FFF7C1BF10BDF8B50E46A2
:200EC0002B4F00EB40053B78EDB203F07F0303EBC301890001FB00F10A318CB221B22846BF
:200EE000324600F069FD96F85F30032B3FD8DFE803F02F2011023978681C01F07F0101EB14
:200F0000410104EB810109B2C0B21A4ABDE8F84000F052BD3978681C01F07F0101EB4101DD
:200F200004EB810109B2C0B2134ABDE8F84000F043BD3978681C01F07F0101EB410104EB26
:200F4000810109B2C0B20D4ABDE8F84000F034BD3978681C01F07F0101EB410104EB810188
:200F600009B2C0B2064ABDE8F84000F025BDF8BD95170020ACE4000098E40000D8E40000FC
:200F800080E4000010B504460B4B188800F016F81CB100202146FFF791FF14F1600102D0D8
:200FA0000120FFF78BFF14F1C00104D0BDE810400220FFF783BF10BD8E17002070B50E4E94
:200FC0000E4C328823880546013A0020013B9BB292B2014600F0CCF900F09AF924883388F9
:200FE00003FB04F424B1284600F0A6F9013CFAD1BDE8704000F0B4B9901700208C170020E5
:201000002DE9F04F85B09DF83C80594D203A02EB420208F07F081C46B8F1010F05EB8203B5
:201020000193BDF8385065D91FFA88F680B2C6EBC60303444F4A9BB29FB2128802973FB2BC
:20104000974209DCDFF830E108EB4807BEF800E001EB8707774505DD501C80B200B205B0F5
:20106000BDE8F08F89B24F1E06EB46065A1E07EB86039BB292B200F07BF900F049F9019BB1
:201080000C330393C246019B13F8019B01930727402616EA090FC3461BD0204600F04CF961
:2010A0000BF1FF3313F0FF0BF7D1013F4FEA5606EFD10AF1FF3A1AF0FF0AE8D1019B039A5F
:2010C0009342DFD100F04CF9029800B205B0BDE8F08F284600F030F90BF1FF3313F0FF0B6F
:2010E000E3D0284600F028F90BF1FF3313F0FF0BEFD1DAE780B21F4BC61DB6B21B8832B294
:201100009A4205DC1C4F01F10C023F88BA4205DD013398B200B205B0BDE8F08F89B201F1CC
:201120000B03821D9BB292B200F022F900F0F0F8019B03F10C0A019B4FF0070813F8019B57
:201140004027019317EA090F14BF2046284600F0F3F8B8F101084FEA5707F3D1019B5345B8
:20116000E9D100F0FDF8304600B205B0BDE8F08FF8E50000901700208C170020084B1B8872
:2011800098420CDA074B1B88994208DA064A074B10B4074C1080198020805DF8044B704700
:2011A000901700208C170020983A00209A3A0020A43A0020024A034B10801980704700BF88
:2011C0005C3A00208E170020014B1870704700BF951700200030024B18BF012018707047CA
:2011E00094170020F0B50A2883B042D000F0FB03092B39D0274C2028268837D00246264FB0
:20120000264897F800E0B0F800C0254D254BB5F900101B8830B28DE80050FFF7F1FE224B4D
:2012200020801B781B4CFBB1204A3B78118803F07F03A3EBC3020A44904215DD2A881C49C1
:2012400003EB43061B4802EB8602098892B2A3EB830301EB8303068810B29842C8BF002350
:201260002A802680C8BF2B8003B0F0BD002EC5D1FAE7094B0A491B780E480A8803F07F0350
:20128000048803EB4303034802EB83030B80048003B0F0BDA43A0020951700208E170020D2
:2012A0009A3A00205C3A002094170020901700208C170020983A002010B5124C0D20236862
:2012C000DB6B984723680720DB6B984723680620DB6B984723680F20DB6B9847236817209B
:2012E000DB6B984723680A20DB6B9847064B07484FF400044FF400414FF400520460196012
:201300001A6010BDB401001090200240A020024038B5074C4FF400554FF4806325602C20FE
:20132000236004F0BBF8034B1D60256038BD00BFA02002409020024000B5084B83B0010A45
:201340004FF480628DF805008DF8041001A81A60022104F085F803B05DF804FB9020024095
:20136000024B4FF400521A60704700BF902002402DE9F04F8346924689469846244E4FF451
:2013800000544FF4806783B0224D34602A20376004F084F84FEA1B232C6001A88DF80430E3
:2013A0008DF805B0022134602F6004F059F84FEA1A232C6002218DF804308DF805A001A8B7
:2013C00034602F6004F04CF82C602B203460376004F064F84FEA19232C6001A88DF80430FD
:2013E0008DF80590022134602F6004F039F84FEA18232C6001A88DF805808DF804300221D9
:2014000034602F6004F02CF82C6003B0BDE8F08FA02002409020024009282DE9F04738D0B4
:201420005A2836D012282DD0B4282BD01B2837D040F23F1820F480700E2809BFC1464FF0FB
:20144000EF094FF0EF084FF0880A18BF4FF0E80A174E4FF40054174D4FF480673460362011
:20146000376004F01BF82C60504634602F6004F015F800202C6042464B46BDE8F0470146A0
:20148000FFF776BF4FF0EF0940F23F184FF0380ADEE740F23F194FF0EF084FF0480AD7E70C
:2014A00040F23F194FF0EF084FF0880AD0E700BFA020024090200240F8B5AB4E4FF40054F4
:2014C000AA4D4FF480670621A94804F001F834600120376003F0E2FF41F288302C6000F05F
:2014E00071FB34602820376003F0D8FF2C60CB203460376003F0D2FF2C60392034602F60D5
:2015000003F0CCFF2C602C2034602F6003F0C6FF2C60002034602F6003F0C0FF2C603420F9
:2015200034602F6003F0BAFF2C60022034602F6003F0B4FF2C60CF203460376003F0AEFF1F
:201540002C60002034602F6003F0A8FF2C60C12034602F6003F0A2FF2C60302034602F60FF
:2015600003F09CFF2C60E8203460376003F096FF2C60852034602F6003F090FF2C60002014
:2015800034602F6003F08AFF2C60782034602F6003F084FF2C60EA203460376003F07EFFBE
:2015A0002C60002034602F6003F078FF2C60002034602F6003F072FF2C60ED2034603760FB
:2015C00003F06CFF2C60642034602F6003F066FF2C60032034602F6003F060FF2C60122040
:2015E00034602F6003F05AFF2C60812034602F6003F054FF2C60F7203460376003F04EFFD8
:201600002C60202034602F6003F048FF2C60C0203460376003F042FF2C60232034602F60E4
:2016200003F03CFF2C60C1203460376003F036FF2C60102034602F6003F030FF2C60C5204A
:201640003460376003F02AFF2C603E2034602F6003F024FF2C60282034602F6003F01EFF19
:201660002C60C7203460376003F018FF2C60862034602F6003F012FF2C603620346037605C
:2016800003F00CFF2C60482034602F6003F006FF2C603A203460376003F000FF2C60552039
:2016A00034602F6003F0FAFE2C60B1203460376003F0F4FE2C60002034602F6003F0EEFE01
:2016C0002C60182034602F6003F0E8FE2C60B6203460376003F0E2FE2C60082034602F6013
:2016E00003F0DCFE2C60822034602F6003F0D6FE2C60272034602F6003F0D0FE2C60F220B0
:201700003460376003F0CAFE2C60002034602F6003F0C4FE2C6026203460376003F0BEFEB3
:201720002C60012034602F6003F0B8FE2C60E0203460376003F0B2FE2C600F2034602F60F8
:2017400003F0ACFE2C60312034602F6003F0A6FE2C602B2034602F6003F0A0FE2C600C2012
:2017600034602F6006E000BFA0200240902002408096980003F092FE2C600E2034602F609F
:2017800003F08CFE2C60082034602F6003F086FE2C604E2034602F6003F080FE2C60F12053
:2017A00034602F6003F07AFE2C60372034602F6003F074FE2C60072034602F6003F06EFEFB
:2017C0002C60102034602F6003F068FE2C60032034602F6003F062FE2C600E2034602F60CF
:2017E00003F05CFE2C60092034602F6003F056FE2C60002034602F6003F050FE2C60E120E0
:201800003460376003F04AFE2C60002034602F6003F044FE2C600E2034602F6003F03EFE52
:201820002C60142034602F6003F038FE2C60032034602F6003F032FE2C60112034602F60C7
:2018400003F02CFE2C60072034602F6003F026FE2C60312034602F6003F020FE2C60C12000
:2018600034602F6003F01AFE2C60482034602F6003F014FE2C60082034602F6003F00EFE48
:201880002C600F2034602F6003F008FE2C600C2034602F6003F002FE2C60312034602F60A3
:2018A00003F0FCFD2C60362034602F6003F0F6FD2C600F2034602F6003F0F0FD2C601120D6
:2018C0003460376003F0EAFD4EF660202C6000F079F934602920376003F0E0FD2C602C2035
:2018E0003460376003F0DAFD2C600020FFF794FD2C60F8BDF8B50646104614460D460BF088
:2019000087FE294B294A1B78B2F800E003F07F03D900CA1A9EFBF2F2254F002EC0B2D2B2F7
:201920003F880EDB002D19DB30462946FFF726FC207828B1FFF756FC14F8010F0028F9D112
:20194000F8BD90422CD2AEF11406591A01FB0066002D06EBD67646F34F06E5DA15490978DE
:20196000A1B103EB4301890097FBF1F1B0FBF2F2C9B2914216D9A3EB83039B00143F03FB1A
:20198000027202EBD27242F34F05CDE7143FA3EB830307EB830303EBD37343F34F05C3E71E
:2019A0000A26BFE70A25BFE795170020901700208C170020941700202DE9F0410446002AA0
:2019C0004ED000293CDB2A4F2A4E2B4D531E27F8141046F8242045F82430284B002093F85B
:2019E0000080FFF7F7FB55F8243056F8242037F91410934228BF1A460020FFF77BFF4046C6
:201A0000FFF7E8FB55F82430581C45F824005B7833B956F82430013B45F82430BDE8F08133
:201A20000BF0F6FD164B174A1B78128803F07F03C3EBC30300FB03309042EAD3BDE8F0810D
:201A40000F49114B09781B8801F07F01A1EB8101143B03EB810101EBD17141F34F01B2E725
:201A6000044E56F82030002BD8D0014F024DB4E7D0190020E4190020081A00209417002036
:201A800095170020901700208C17002010B5064C042023685B699847236804205B6B984733
:201AA0000128F9D110BD00BFB801001038B5194A00200021C2E90001174B04201B685B6BD2
:201AC0009847012801D0FFF7E1FF134B00201B68DB699847114B0121114A196013689B07C4
:201AE000FCD5104A10491368096823F4807323F001030E4C13600B6820460D49984740F248
:201B000021220C490C4B04253120256008601A6038BD00BF98170020B801001028200860F9
:201B2000282008400C000140C801001000000140002100043C0001400800014010B40949AD
:201B4000094C0B68226808688342FAD1DB01074903EB52620023C1E900235DF8044BD1E917
:201B600000017047082009400C2009409817002010B50B490B4C0B68226808688342FAD18B
:201B8000DB01094903EB52620023C1E9002301F057FE00B910BDBDE8104001F023BE00BF33
:201BA000082009400C2009409817002010B502F0D5FC034B1C6808B902F0D4FC204610BD60
:201BC0000820094038B51A4B05461B6804205B6B9847012801D0FFF759FF154B154A1B6821
:201BE0000020DB6914689847134B0121134A04F00104196013689807FCD5114B11491A46D6
:201C00000D60196841F4807119601368D905FCD404B138BD064B20461B681B6A9847064B75
:201C20000121064A196013689B07FCD538BD00BFB801001054200840282008602820084052
:201C40000C0001402C000140704700BF0146012000F060B802F0ECBD2DE9F04102F07EFC96
:201C6000194F1A4A1A4E1B4901243B68002535600C60146080461B682846232198473B68ED
:201C800020461B6824219847134A1449136823F4E02343F4403313600D6002F0C9FD104B4B
:201CA0001049114A1B6800F500700860146034601B6914209847B8F1000F01D0BDE8F081E2
:201CC000BDE8F04102F04EBC84010010A0002443000024438000244300200940082009406E
:201CE000B00100101C200940A0022443064A074B10681B68DB0706D5054B1B681A1A30EA1A
:201D0000220028BF184670471C2009401420094018200940431E012B00D97047C30709D55D
:201D20000B4B820719600ED50A480B4B012201601A6003E0830705D5064B1960074B01223C
:201D40001A6070477047044B01221A60704700BF182009401C20094080022443A002244341
:201D6000014B1868704700BF2C1A002008B5FFF771FF124B1860FFF7FBFE114B1B686BB9D1
:201D8000104B1B6803B908BD0F4B10490020012208601A60BDE8084001F02CBF0A4B4FF4AB
:201DA00080721A6002F044FD00F2052020F4FF70074B20F001001860E2E700BF2C1A002021
:201DC000A00024438000244304200940800224431C200940820702D5034B01221A60C30725
:201DE00000D4704702F0BEBB000C084008B502F0B5FB074B1A68012A03BF0649022219608D
:201E00000022002814BF104642F0010008BD00BF000C084051E5CC1A03490448044B01221E
:201E200008601A60704700BF00000840FFFF0F00000C084038B5FFF7D9FF064C064D0749F1
:201E4000074A012325600B601360BDE83840FFF7C1BF00BF00000840FFFF0F000C000840AF
:201E60000401004303490448044B012208601A60704700BF00000840FFFF0F000C0008400F
:201E800010B50446C0B200F05FF9204610BD00BF70B506460024451E04E015F8010F00F09E
:201EA00053F9013430460BF0B3FB8442F5D30A2000F04AF900F08EF90128FBD0204670BD99
:201EC00070B50446B0B10078C0B1A9B10025661804E014F8010F38B1B44205D000F034F97B
:201EE000631C05F10105F4D100F074F90128FBD0284670BD0546F7E70D46F5E70546F3E739
:201F000038B50C4D02202B685B6998472B6802205B6B984701280446064BF7D11B684FF477
:201F20000070DB699847044B044A1C6013689B07FCD538BDB8010010282008602820084009
:201F40002DE9F04340F2F275DFF8DC8083B0FFF7D7FFD8F800302A4EDB682A4898473368C6
:201F6000294C5B69152098472368DFF8C090274F23F4FE63D9F8002023F0020323603D604B
:201F8000D36B032098472249D9F800204FF0FF33082008600093D2F840C01A48022103229D
:201FA000E047D8F800301748D3F804C019494FF4E1326023E04740F2011240F2013E164995
:201FC000164B142008601968154841F01001196003681449002B0CBF134673460B603D6093
:201FE000036853B12368326843F0500323601369152003B0BDE8F043184703B0BDE8F083DE
:20200000B001001000100040381000404410004090200240006CDC02341000402C10004057
:20202000301A002030100040D0010010B401001008B5064B02201B685B6B9847012803BFCD
:20204000034B186800F00100002008BDB80100106C20084038B50446FFF7EAFF18B1264AF0
:2020600013681907FCD4032C03D0244B1B6803B138BDFFF7DDFFF0B9214D4FF400702B6829
:202080001B6A9847032C2CD01E4B01211E4A196013689B07FCD5032000F0F0F9022000F049
:2020A000EDF94FF0FF3000F0E9F9BDE838404FF0FF3000F0E3B9154B15481B68DB68984781
:2020C000144B15201B685B69984740F2F270124A1249136823F4FE6323F002031360086015
:2020E000CAE72B684FF400709B6A98472B684FF400701B6B9847C7E718100040301A0020DA
:20210000B80100102820086028200840D001001000100040B00100103810004044100040A8
:2021200010B502F01BFA0446054800F091F9054B00221A6004B110BDBDE8104002F012BAA1
:2021400060140020301A002010B50446FFF770FF08B9FFF7F5FE044B2146BDE810401B6835
:202160000248DB69184700BFD00100100010004010B5134B134C1860134A2368A8B1022124
:2021800011615B6A4FF40070984723684FF40070DB6A98470D4B01210D4A196013689B07AD
:2021A000FCD5BDE81040FFF7CBBE10619B6A4FF40070984723684FF400701B6B9847E9E75F
:2021C000301A0020B801001060140020282008602820084008B5FFF72BFF18B1024B186885
:2021E000C0F3C00008BD00BF1810004038B5FFF787FE40F2F2710C4B0C4A1B68116013F0DF
:20220000500F10D00A4C0B4D05E02B681B699847094B1B6823B923680848DB06F5D538BDC8
:20222000C0B29847F7E738BD401000404410004018100040D0010010301A00200010004053
:2022400070B502F08BF901F053FC002840F0A080FFF74CFD0446FFF7FDFC201A202800F140
:202260009B80654801F068FD0446002800F0AB800225636823B19847A84228BF2846C5B258
:202280002468002CF5D101F0E3FA044601F0D8FA002840F0A180012D7ED0574801F04CFD17
:2022A0000446002800F081800626A3680BB1284698472369246826EA0306002CF5D1FFF762
:2022C000D1FD730706F0060572D4002D75D100F091F94A484A4903684A4A23F003030360E2
:2022E0000B68494C23F4C0530B6013684748216843F00F030024136004608B693920984742
:20230000434B444E1B683460DB6801209847424A424B34601460186810F02000FBD102F0C4
:2023200025F9062D63D03E4C3E4D3F4E2B682368326823F00303236053683C4803219847E1
:20234000314B1B689B6B98472B6802F003FA384A33680021116035485B680121984723689C
:20236000344A012143F00303236011602B6802F023FAFFF7FDFBFFF775FD1F4801F0DCFC68
:20238000044628B1E36803B198472468002CF9D1BDE8704002F0E6B802F0E4F8264A13681C
:2023A00023F00403136030BF70BDFFF75BFD0625204B00221A60002D89D0134B28461B681F
:2023C0009B69984783E701F043FA044601F038FA022500283FF461AFFFF7B0FB241AFFF7AE
:2023E000BFFC00EB44210220FFF794FC53E7022002F03CF897E700BF341A002000100940A4
:202400000410094008100940B801001080012243A00100104010094020042243141009400F
:20242000242208402C200940D801001000400340800104430C40094010ED00E0034A13680B
:2024400023F00403136030BF704700BF10ED00E00146014801F07CBC341A002010B5054874
:2024600001F066FCBDE81040034B02201B6820211B681847341A002084010010421C10D0BD
:2024800010B50446074B00211B684FF4C0421B689847054901230A68A34022EA03030B604C
:2024A00010BD7047B4010010D0200240064B002103F1800243F8041F9342FBD1034B10203C
:2024C0001B681B69184700BF341A0020B0010010F8B5094B094F1D6800241D60012606FA02
:2024E00004F32B42E0B203D057F8243003B198470134202CF3D1F8BDE0200240381A00202F
:2025000008B520B9064B01201B685B689847044B40201B685B689847024B00221A6008BD0C
:20252000A00100100002224338B50A4C01F0FCFF236801209B689847236805461B6801204C
:202540009847236801209B6898471128F9D1284638BD00BFA001001030B583B0FFF7E4FF47
:202560000446042001F0CAFF032813D00420032101F094FF042001F0C1FF03280346F9D146
:20258000074A084812680093556800214FF040521C23A847204603B0BDE83040FFF7B0BF1D
:2025A000A401001000A00C4010B5FFF7BDFF0446012001F0A3FF012803D00320012101F0D3
:2025C0006DFF2046BDE81040FFF79ABF10B5FFF7ABFF0446012001F091FF012802D0044B4A
:2025E0009B6B98472046BDE81040FFF789BF00BF4800001010B5FFF797FF00210446032067
:2026000001F04CFF012001F079FF10B1034B9B6B98472046BDE81040FFF772BF4800001026
:2026200070B5038804465BB140F2D312934203D182290AD0012070BD00230380032070BD0B
:2026400040F2D3132380012070BD094B094E1D69FFF708FC02F040FA02F0F4F98021A847AB
:20266000002880B2ECDD02F0E7F933699847EFE7CCED0000D8E50000024B186800F00100E0
:20268000704700BF9C21084010F0030370B506460D4602D1028811051FD401F05FFF1F4BD6
:2026A00000301B6818BF0120DB0720D51C4B1D4C1E6023684CF250322B6003E02368013ACB
:2026C0002B6014D013F0FF0FF8D018B32878A0F10100B0FA80F0400970BD438001F03EFF34
:2026E0000E4B00301B6818BF0120DA0702D468B1002070BD338813F4405FD7D003F4406317
:20270000B3F5006F04BF084B1E60CFE701F02AFF002070BD01F026FFD8E700BF9C21084058
:202720000010044004100440B81A00200A4A01E0013A0ED0438803F44063B3F5806FF7D1E9
:20274000428802F44062A2F58060B0FA80F0400970471046704700BF20A1070030B583B0DA
:2027600001F0FCFE224C0546236819201B6A9847236812201B6A9847236819205B69984705
:20278000236812205B6908349847236801205B699847236801205B6B98470128F9D11549AC
:2027A000154B164A0860186013689B07FCD5104C134814492268002303600B601369192047
:2027C0009847236812201B6998476DB10E4B07221A6001A90D48FFF757FFA0F10100B0FA59
:2027E00080F0400903B030BD01F0BCFEEEE700BFB00100102C2008402820086028200840AC
:202800001010046014100460000004600100060430B587B001F0A2FE2E4C05462368192007
:202820005B699847236812205B6998472A4B1B68DA0715D540F60D04284A29490023136011
:2028400002A80B60012201A90293059303930493ADF808408DF81520FFF716FF01282AD067
:202860002048214B00240121204A0460196013689B07FCD51E4C012023689B699847236885
:2028800001205B6B98470228F9D1124C192023681B6A9847236812201B6A98472368192013
:2028A0001B699847236812201B6998470DB901F059FE07B030BD0F4A01E0013AD0D0BDF819
:2028C0000A3003F44063B3F5806FF6D1BDF80A30C6E700BFB00100109C2108401010046021
:2028E000141004602C2008402820086028200840B801001020A1070010B501F0B3FF68B962
:2029000001F0A8FF830703D501F0A4FF440720D401F0A0FF800713D5002010BD01F0A2FF6C
:2029200001280446F8D101F095FF8207F4D401F091FF4307F0D4094B03221A60204610BDD0
:2029400001F088FF4107E7D5044B02221A60012010BD024B05221A60012010BDD02108400B
:2029600000B583B001A90548FFF78EFEA0F10100B0FA80F0400903B05DF804FB01000504F0
:20298000F8B5144B1B68DB0700D4F8BD01F0E6FD0546114A1148124F124E134C00214FF0EA
:2029A00000433B6006601160236819201B6A9847236812201B6A9847236819201B699847F2
:2029C000236812201B69984705B1F8BDBDE8F84001F0C8BD9C210840101004601410046008
:2029E0001810046000008080B0010010054B0649064A002814BF18460846054B02391160F8
:202A00001860704708008080020080801010046014100460014B024A1A6070471410046020
:202A200000008080014B1868704700BFB81A0020014B1860704700BFBC1A002008B5074B23
:202A40001B68DB0704D4FFF789FE012800D008BD034B6FF000421A6008BD00BF9C2108400C
:202A60001010046008B5124B1B68D90707D41148FFF70EFAFFF772FE012800D008BD01F00E
:202A80006DFD0D4B1A6812020BD40B4B1A6812F00A0F1CBF6FF00A021A60BDE8084001F06E
:202AA00061BD6FF400021A60044801F07FF8ECE79C210840ECE40000101004607414002091
:202AC0000AB90020704708B508461146FFF7F8F9002008BD0FB400B583B004AB53F8041B6A
:202AE00004481A46019300F04BF803B05DF804EB04B070478414002038B50446154600684F
:202B00000AF034FC236800201D44256038BD00BF0EB430B586B009AB53F8041B084D019065
:202B20001A4601AC04A803930495059400F028F8019B00221A7006B0BDE8304003B0704787
:202B4000F92A0000102970B50C46054602D80AE0102C0BD92B686868084910229847103C62
:202B60000028F5D070BD08460029FBD022462B6868680249BDE87040184700BF78E5000013
:202B80002DE9F04F82460F468FB007924FF0000B3B78002B00F0E880252B08BF3E461BD0E5
:202BA0003C4602E0252B04D014466378621C002BF8D1974216460CD0D51B39462A46DAF824
:202BC0000030DAF804009847002840F079826378AB44002B00F0C88073780136002B00F053
:202BE000C38019460025A1F12003102B1BD8DFE803F0171A1A141A1A1A1A1A1A1A111A0E23
:202C00001A1A090045F0100516F8011FEBE745F00105F9E745F00605F6E745F00805F3E7D9
:202C200045F00205F0E7A1F13102082A0B46374600F2DC80A1F13002092A4FF000040AD852
:202C400004EB840403EB440417F8013F303CA3F13002092AF4D92E2B00F0D1804FF0FF3638
:202C60006C2B00F03D81682B00F04281782B00F28180DFE813F079007F007F007F007F00F4
:202C80007F007F007F007F007F007F007F007F007F007F007F007F007F007F007F007F0044
:202CA0007F007F007F007F007F007F007F007F007F007F007F007F007F007F007F007F0024
:202CC000BE027F007F007F007F007F007F007F007F007F007F007F007F007F007F007F00C3
:202CE0007F007F007F007F007F007F007F007F007F007F007F007F00BB027F007F007F00A6
:202D0000B802B502B2027F007F007F007F007F007F007F007F007F007F007F007F007F001B
:202D20007F007F007F00AF027F007F007F007F007F007F007F007F00AC027F00A902A602ED
:202D4000A302A0029D027F00A6027F007F007F007F009A0297027D007F007F0091027F00A8
:202D60008E027F007F00940258460FB0BDE8F08F45F4407505F4E063B3F5806F07F10107ED
:202D800000F0CE804FD9B3F5C06F00F0A581B3F5E06F00F09A81B3F5A06F7FF4F9AE079B6B
:202DA000012C1A6803F1040307938CBF04F1FF340024EB078DF8202000F1D0815046214642
:202DC000FFF7C0FE002840F07B81DAF80030DAF8040008A901229847002840F071810BF11A
:202DE000010C0CEB040505EB040BD1E62A2900F08C800B462E2B4FF000047FF42FAF7B7890
:202E0000791CA3F13002092A7AD80F46002606EB860603EB460617F8013F303EA3F130021D
:202E2000092AF4D91CE7B3F5807F00F0B080B3F5407F7FF4ADAE079BC34A1968C34815F44F
:202E4000804F03F1040308BF9046079318BF80460A460023002900F094810DF1330948466B
:202E6000110941EA03714FEA131E02F00F0673460A4618F8061000F8011D52EA0301EFD1E3
:202E8000B9EB0006034600F07E810336B4424FF030024FF078014FF0230300F8022C8CBF22
:202EA000A41B0024EA0700F8011C00F8033CA0F1030800F1A18150462146FFF743FE0028E7
:202EC00040F0FE804146DAF80030DAF8040032469847002840F0F4805E4406EB040B57E6E3
:202EE0007B786C2B00F00481013745F06005BDE67B78682B00F09381013745F04005B5E687
:202F00002A2B00F091810F46A8E6079B771C1C680433002C0793B8BF45F0010573789AE6A4
:202F2000079BD3F8009004330793B9F1000F00F08F8299F80030002B00F0B2824B4613F85D
:202F4000012F002AFBD1C9EB0308002E02DBB04528BFB04644458CBFC8EB04040024E9070C
:202F600000F1E08050462146FFF7ECFD002840F0A7804946DAF80030DAF8040042469847D7
:202F8000002840F09D80D84408EB040B00E6002EABBF25F0100501230196019315F400534B
:202FA000049305F0E00300F0A880402B00F07F8200F24181002B00F02D82202B40F05A8259
:202FC000079B1A1D079293F90020D317002A73F10001C0F22A82CDE902230023059305F46D
:202FE000C053B3F5805F00F09281B3F5C05F00F0BF81B3F5006F00F067810DF136064FF0D5
:203000000008019B41F20802984541F6080303EA050380F0338101999342C8EB01010191E1
:2030200000F0468141F6080201999342414400F031814FF000094A46049B73B1059B002B9C
:2030400040F0838105F00603022B00F01B824048062B04BF02464FF0010909EB01039C42A1
:203060008CBFE41A002415F00103049306D1E80640F1F681019B2344049C0193B9F1000FE6
:2030800007D01146DAF80030DAF804004A469847B0B9019B08EB0B05102B40F291819B4653
:2030A00003E0BBF1100F40F28E81DAF80030DAF80400284910229847ABF1100B0028F0D028
:2030C0004FF0FF300FB0BDE8F08F079B1A680433C2F800B007935BE5DAF80030DAF8040028
:2030E0001D49012298470028EAD10BF1010B4FE5BB7845F080050237B8E5402B00F0C681E4
:2031000000F2A980002B00F09881202B40F02181079B049A05921A1D07921A780023CDE931
:2031200002235CE74946DAF80030DAF80400424698470028C4D150462146D844FFF702FD8E
:2031400000283FF421AFBBE748E5000034E5000068E5000088E5000074E50000DAF8003047
:20316000DAF8040008A9012298470028A8D1504621460BF10105FFF7E5FC00283FF433AE13
:203180009EE70DF13303302203F8012C581E04267CE645F41065EDE545F48065EAE545F454
:2031A000C855E7E545F48855E4E545F4E065E1E545F48135DEE545F40075DBE545F4024563
:2031C000D8E545F42455D5E545F4A065D2E545F4C135CFE545F4B245CCE545F4A135C9E550
:2031E00045F48445C6E545F44245C3E545F4E135C0E545F4C065BDE54146DAF80030DAF86B
:2032000004003246984700287FF45AAF504621465E44FFF797FC00283FF45FAE50E7BB78B5
:2032200045F02005023721E5079ABB78111D07911668023714E5602B00F0EC80802B40F0E9
:203240001981079B073323F0070303F108020792D3E90023BAE6602B00F0EF80802B78D1E7
:20326000049B0593079B073323F0070303F108020792D3E90023CDE90223B0E6934200F072
:20328000EC800022019241F608020199934241447FF4CFAEDDE9022313433FF4CAAE874B2A
:2032A00015F4804F864A4FF0020908BF1A46C3E60B46002908BF01230193019B4FF000096F
:2032C0004A4603EB0801B7E6DDE9028942464B46134300F0E7800DF136031E4606934046F9
:2032E00049460A22002309F037FD30324046494606F8012D00230A2209F02EFD8046894618
:2033000058EA0903EBD1069BC6EB030879E6DDE90223134300F0C6800DF1360306939E46BC
:20332000DDE90223D00840EA4370DE0802F007013346024630310EF8011D52EA0301F1D1C5
:20334000069B7646CEEB03085BE64FF001095D4A83E605F4C053002200200021B3F5805FBC
:203360000592CDE90201D2D0B3F5C05F40F08580DDE90201544A554B15F4804F14BF9046D7
:20338000984602460B46134300F08C800DF1360306931E4602460B46110941EA03714FEAA5
:2033A000131E02F00F0073460A4618F8001006F8011D52EA0301EFD1069BC6EB030820E633
:2033C000019B9B464BB15A46DAF80030DAF804003F49984700287FF473AE31464246DAF808
:2033E0000030DAF804004D44984700287FF468AE019B2B441E46049B002B3FF46EAD504689
:203400002146FFF79FFB00287FF45AAE06EB040BFFF7BEBB079B1A6804330793002A4FEA4B
:20342000E27373F10001BFF6D6AD524263EB4303CDE9022301230593D1E5049A079B05924E
:203440001A680021104604330793CDE90201C6E5DFF884904FF0060877E5012301932CE7DF
:20346000504621460292FFF76DFB029A00283FF405AE25E600220023ADE5DDF814800DF16A
:203480003606BEE5134A4FF00109E6E5079B049A05921A1D07921A880023CDE902239EE512
:2034A000984652E54FF000080DF13606A9E5079B1A1D0792B3F90020D31787E560E500000F
:2034C0005CE5000064E5000034E5000048E5000088E5000024DA00006CE5000010B5044651
:2034E000006830B1002100F041FB54F8040F0028F8D110BDF0B5038883B005465BB14A2BEA
:2035000004D188291BD0012003B0F0BD00230380032003B0F0BD194800F00EFC044630B10A
:20352000201DA16800F064F92468002CF8D1144B01221A704A2301202B8003B0F0BD0F487B
:20354000019200F0F9FB04460028F3D0019A031D9A4205D02468231D002CEBD09A42F9D1FA
:203560000648214600F038FC064E6269A369376832600BB1E06998473760DBE7C01A0020DF
:20358000743A0020D81A002010B5064B002406481C7000F0CDFB2146BDE81040034800F0E8
:2035A000E5BA00BF743A0020C01A00208C14002070B504460D48049D0078A261E36165613B
:2035C00030B9A1600A482146BDE8704000F0C0BB084D094B2E68201D2B6000F009F92E6001
:2035E0002146BDE87040024800F0B2BB743A0020C01A0020D81A00208C14002010B5044CB9
:2036000082B024680094FFF7D3FF02B010BD00BFD81A002070B5094B04461B783BB1084DA9
:20362000084B2E6804302B6000F0ECF82E602146BDE87040044800F08BBB00BF743A0020B5
:20364000D81A00208C140020C01A002010B50A4B04461B783BB9C36003612146BDE81040D0
:20366000064800F0B9BB043000F0FCF82146BDE81040024800F0B0BB743A0020C01A0020B7
:20368000704700BF10B50E4C2368B3B1FEF756FA22685168136892681944091A4AB192E8B4
:2036A000180023441B1A9268994228BF1946002AF5D1044B0844186010BD024A136010BDDF
:2036C000C41A0020C81A00202DE9F041038805467BB1592B08D1872912D0822920D059239B
:2036E0002B800120BDE8F081002303800320BDE8F081254A0120136059232B80BDE8F081C9
:20370000214F3B68002BEAD0D9688A4203D024E0D9688A4220D19B68002BF9D13B60DEE777
:20372000194F4FF000083C68002CD8D0002604E0A3682646002BD2D01C46204600F082FAE0
:203740000028F5D0E0688821224600F0DBF978B10E4800F02BFAEBE73B6099680029BED0A6
:20376000C86882420BBF89680B4699608968F5E7E060A3682EB1B360C4F80880FFF782FF8B
:20378000D1E73B60F8E700BFC41A00209C14002010B50446104800F009FA1049E3680A68FA
:2037A0004BB142B194420FD0134601E09C420BD09B68002BFAD10A4BA2601B680C60E360F0
:2037C000BDE81040FFF75EBF054B1B68E360BDE81040FFF757BF00BF9C140020C41A00203D
:2037E000D81A0020014800F0E1B900BF9C14002010B5044600F012FA2046BDE81040FFF7F9
:20380000C7BF00BF10B5044600F010FA2046BDE81040FFF7BDBF00BF10B5044600F00CFAC9
:203820002046BDE81040FFF7B3BF00BFC068B0FA80F04009704700BF05C81044704700BF6E
:20384000024B1868003018BF01207047C41A0020024B186808B1024B18687047C41A0020B6
:20386000C81A002010B5114B04461A68904218D05AB19368834208BF13460AD02BB19A68FC
:20388000A24206D01346002BF9D10023A360E36010BDA2689A60FFF7F5FE0023A360E36094
:2038A00010BD82681A60FFF7EDFEEEE7C41A00202DE9F843DFF8A480274DD8F800702E688D
:2038C000874247D077B33B4601E0002B3BD01B689842FAD133B3837B8946044623B3002328
:2038E00083736FB1BC424FF0870106D0BB7BDB0703D53846224600F033F83F68002FF1D18E
:20390000A3683BB14C4505D02C6004F10C00832100229847D8F80000844208D12368C8F85E
:2039200000302E60BDE8F88338468442F6D00028F7D00368A34208D0002BF2D01A68A24235
:2039400004D01346F8E7BDE8F883034622681A602E60E7E73B46BDE7D81A0020DC1A002045
:2039600070B586687EB104460A4802230460A37304F10C000D46B0470238012804D9832D8F
:2039800002D00123A37370BD20462146BDE87040FFF78EBFD81A002070B50C4A0C4B146829
:2039A00000251D7084B1012601E0246864B1E37B002BFAD0A673E573204682210022FFF792
:2039C000CFFF2468002CF2D170BD00BFDC1A0020773A0020024B1878421C1A70704700BF90
:2039E0007A3A002070B407480749084A0023084D084C8A2603700B6013602E70237070BCB4
:203A0000704700BF763A0020DC1A0020D81A00207A3A0020753A00202DE9F8432B4D2B7829
:203A20000BB1FFF7B9FF2A4E33781BB3DFF8B4E028499EF80040013B04EB440292008818D6
:203A40000134895CDFF8A0C04268DFF8A0808068214FDBB204F01F0433708EF80040CCF84B
:203A60000000C8F80020397088B1812906D0847BE40705D428781844BDE8F883012383730B
:203A8000FFF76EFF337828781844BDE8F883134A134C12682260002AECD0A1460AE0206805
:203AA0003978837BD8F80020DB0709D403682360002BE7D02B78002BF1D0FFF76DFFEEE712
:203AC000FFF74EFFD9F80000F0E700BF773A0020763A0020E01A0020783A0020DC1A002099
:203AE000D41A0020753A0020CC1A0020D01A0020024A034B10781B7818447047763A002041
:203B0000773A0020F0B50F4E3478202C17D00E4BDFF838E01B78DFF838C0234403F01F03CD
:203B200003EB4305AD000EEB05070134B86034707A608CF800300EF805100020F0BD012015
:203B4000F0BD00BF763A0020753A0020E01A0020793A002038B5837B034CDB07256801D5EE
:203B6000FFF7FEFE256038BDD81A002070B404460D4D2868A04206D038B1034600E023B1D1
:203B80001B689C42FBD170BC7047002CFBD0012600232060A673A3810A4620462C60812133
:203BA00070BCFFF7D7BF00BFDC1A002038B1837B013B012B03D8024A01231370C37370476E
:203BC000773A0020FEF740B838B5094C049D226822B180E82A002060002038BD024680E810
:203BE0002A0008462260FEF731F8002038BD00BF601C002010B5084C206858B100224368C6
:203C0000816822609847236823B1BDE810401868FEF71CB810BD00BF601C002010B541602F
:203C20000446FDF78BFF206010BD00BF90E80C0013440360704700BF10B50446FDF77EFF7C
:203C4000206010BD10B50446FDF778FF23686268C3F10103184482422CBF0020012010BD77
:203C6000F8B504880546672C0CD0792C1BD01CB1002303800320F8BDFFF7ACFE1E4A1F4B04
:203C800010701C601D4C264604E00A2813D023687E2B2BDD1A4800F0D3F8431CF5D1672352
:203CA0002B800120F8BD852901D00120F8BD134C00232360E6E7114C124F23680E49002696
:203CC00003F1010E3A4609783046FE54C4F800E0FFF718FF0C4B324618688521FFF712FF73
:203CE0000028E5D179232B800120F8BD05495A1CC8543260CEE700BF2C4500206C1D0020A9
:203D0000E41C0020EC1C0020D81A002008B505480549802200F08CF8BDE808400348002182
:203D2000FFF724BFE41C0020641C0020AC14002000230360704700BF00687047006808B9C6
:203D400004E018460368002BFBD17047704700BF026842B1914203D11BE099420ED01A467A
:203D60001368002BF9D100230B6002680AB90EE01A461368002BFBD1116070470B6813604A
:203D800000230B6000230B600268002AF1D1016070470B680360F3E710B404684CB1A142D9
:203DA00017D0224602E0994208D01A461368002BF9D10C6001605DF8044B70470C460B6862
:203DC00013600023236004680C6001605DF8044B70470B680360F4E7026842B18A4203D188
:203DE0000BE0994204D01A461368002BF9D170471968116000221A60704713461268026028
:203E0000F8E700BF03682BB100201B680130002BFBD170471846704700B10068704700BF97
:203E200009F0CCBB08B509F0D3FB80B208BD00BF0023013A0160027143718371704700BF78
:203E40000346807959791A79091A114208D010B4411C1C680A40205C9A715DF8044B70479C
:203E60004FF0FF30704700BFF0B50646AE4B0121AE4A83B019601368002BFCD0AC4AC02165
:203E8000AC4B11601B68990700F1DD81AA4BA2F57F321B68A2F5D572C3F3034343F0F00388
:203EA0001370A6490020A64AA64B086015681B686FF00902C3F30463152B88BF203B03EBD0
:203EC000257301339342B8BF13469F4C9F4F03F01F03C5F3C061DFF8D4E2C5F3806243F44C
:203EE000F85382F0010281F0010199483B80CEF8001022600368AA03C3F38364C3F38F237E
:203F00000FD445F30722002A80F2EC815B0806D164084FF001030CBF1C464FF6FF73013254
:203F2000F4D143EA044400F019FB8A490B68894A002BFBD0884901230C60136008B900F0AF
:203F400011FB834A854813681168C3F3870201F0030342EA03230268009354682C21804871
:203F600040F2FF320023A0477E4B1C6800F0F6FA7849C4F30D040B68764A002BFBD07A4932
:203F800001230C60136008B900F0ECFA774B1C6800F0E4FA6F4904F0FC340B686D4A002B42
:203FA000FBD0734901230C60136008B900F0DAFA704B1C6800F0D2FA24F07F44654924F45A
:203FC00040340B68634A002BFBD06B4901230C60136008B900F0C6FA564B684A11681C68DF
:203FE000C1F3034014F00104C1F3035300F016811B0504048AB21343212E44EA030484BFAF
:2040000001F080431C4300F0A9FA52490B68514A002BFBD05A4901230C60136008B900F004
:20402000A1FA212E40F2F0805649574A0B68C3F300735B0043F02003DBB213700B68C3F32E
:20404000407343F01003DBB21370504B1B68C3F30264A200C3F3C16442EA0424C3F38153C2
:204060001C4300F07BFA3B490B683A4A002BFBD0474901230C60136008B900F073FA1F2E0D
:2040800040F2B680414B434A1B68212EC3F301534FEA430343F06003137040F23881394ABD
:2040A0003D4813683D49C3F3C063DB0063F07F03DBB203701368C3F345539B0043F47C4397
:2040C0000B80324B1B68C3F30512C3F3892112041B0342EA81529BB242EA030400F03EFA4D
:2040E0001C490B681B4A002BFBD02D4901230C60136008B900F036FA2A482B4A442488213B
:20410000204B047011701B68C5F38150C3F3C14343F030030128537000F0B480C0F09C8037
:20412000022840F0948043E0101009409402224300600C40B03F0050AC3F005040100940CB
:20414000B43F0050B8120050080020436E6208405013005000800C4018A00C40A401001047
:2041600000A00C407C1300501CA00C407413005014A00C407013005010A00C4078130050EB
:204180000CA00C408C13005049A10C409813005028A00C404CA10C4041A10C40DCA10C40C3
:2041A00008A00C4005A10C4007A10C40000020430420032100F072F947F61804584B594981
:2041C0001B68594A5948096803F03F0313700480A2F56332CB680220A2F2DF3212689847EC
:2041E0005349544B4020012208601A6003B0F0BD514C5249524B602680204FF47C4226702D
:204200000870504C1A8069E74F4B222111221F2E19701A703FF619AF002422E74B4A1268F7
:2042200042F30327FB1859D40F2B59DD4FF4700342F3033212183FF5DDAE0F2AD4BF140482
:204240004FF47024D6E6424B72221A7029E60420022100F023F9AFE743F2BD76042001217A
:2042600000F01CF93B4D3C483C4B862401213C4A2E60046019601368002BFCD0374B0022D3
:204280001A6099E700F03AF904460420214600F005F9042000F032F9A042FAD1314B2D4E5B
:2042A00018682D4C2D4B87B2C0F3074501212C4A3760256019601368002BFCD02A4B274AD0
:2042C0001B68002111601B684FF06022000E07219847264B4FF480621A6069E72346A7E719
:2042E0001B05A5E73FF41DAE5B0043F00103B3F5803F4FEA440107D341F001040F2C86BF0D
:204300004FF6FF730F240123013AEDD109E60B490B4B80204FF47C4208701A80D1E600BFD4
:204320006C130050A00100100BB00C4070B00C4000600C40940460424CA10C4041A10C403D
:20434000DCA10C4000803F4049A10C40AC3F0050566208403C600C4040600C4044600C4060
:2043600084088C43A83F0050B401001040A00C4070B5314B314D1C680026631C08BF002487
:2043800000F0D8FA2E482F4901232F4A2E6003600B601368002BFCD12C492D4A0B68126828
:2043A00023F00053560723F0070334D4294A43F00053156843F00400AD0721D10860264BE9
:2043C0001B6823B1254B20461B68FFF74DFD244B0021244A19601368234923F07F6323F483
:2043E000702343F09C7343F4803313600B68C3F30133012B15D0144A1368002BFCD170BD1F
:2044000043F007030B60136803F00303032BFAD10E4B1860D3E743F0005343F005030B60D0
:20442000CDE70B6823F0407323F4403343F400320A600B60DFE700BF1C1300508404604299
:204440005C600C40082204430C00684204400340B03F005000400340800128430001204394
:204460008C210840482003400400094001280AD018B1084B01221A607047074A136823F0FD
:20448000050313607047044A136843F005031360704700BF800104430000094070B50D4674
:2044A000C10782B004461AD4A2070DD4630709D5104BADB21B6800955C680F4800210C22BC
:2044C0000223A04702B070BD0A4AABB21268009356680948002102220123B047E6E7054AA8
:2044E000ABB212680021009356680B4602480122B047D9E7A401001000A00C4010B5084B45
:2045000004281B684FF03401DC6807BF4FF0C0421D234FF080521C230248A04710BD00BFE0
:20452000A401001000A00C40094B0121094A196013689B06FCD510B5074C402023681B6825
:204540009847236840209B6898471128F9D110BD0002224314100940A0010010EFF31080E8
:2045600072B67047EFF3108062B670476B4B1B68990706D56A496B4B6B4A082088711A60AE
:2045800070472DE9F041044601F0CEFC674B1A6812F0030318BF0123520748BF43F0020349
:2045A0000CB143F004035E4D95F90720821A042A14DCAA799A4211D1AA885D4B1E2A196866
:2045C00057481346296070D81F238380594B5548594A002103601160BDE8F081B0F10F022C
:2045E00000F1848002EB02173A12072A53D9534E534C31464FF4E0622468096813F0040CCB
:20460000A1EB0401CCB21CBFC1F3072E744413F0020E1CBFC1F30748444413F0010858D161
:20462000BA1A02FB04F28032082A94BF002201223168CFB2BCF1000F02D0C1F30724274445
:20464000BEF1000F02D0C1F307442744B8F1000F01D007EB11673B4C34212668246836172A
:20466000C6F1080601FB06F1E4B204FB01F43A44B4FBF2F14FF6FF728A4228BF0A467F2888
:2046800092B2AA8023DC10F1800FB8BF802036DAE871AB7191E73AD0561C2B4CB6002B49EC
:2046A0003444314412022646A6E7B2F5007F28BF002226D35B08B3F5007F02F10102F9D28D
:2046C00023490F3B1B09114341EAC3037FE77F20DEE704EB1161BA1A02FB01F28032082AE8
:2046E00094BF002201224FF00108A1E703F0040C03F0020E03F001080122144E98E7C0B2DA
:20470000C6E70F3A1209124BD20013435FE70B4E0B4C31464FF4E0626EE700BF00000940B4
:20472000701D002030100940FDFDA400242208400820094008E7A48034100940B8130050EB
:20474000B4130050B43F0050981300509C13005000E7A48038B5154B1C68A4B204B938BD21
:2047600001F0E2FB124B93F90720904216DB9A880F49944210D34FF6FF700E4B0D681B6860
:20478000A41A02335B1B1F2B28BF1F235B08DC401444844228BF04468C8038BD6FF07F028E
:2047A0009042B8BF1046D871E1E700BF34100940701D002008200940184B1A6832B3184BB2
:2047C000196801F04063B3F1406F1FD0154B1B6898071BD410B4144B144C20681B6810F083
:2047E000050FC3F3035303F11C034FEA03130ED19A4209D90A0158BF40F001004B010B4BA5
:2048000058BF40F0040018605DF8044B70479A42FAD220F005002060F6E700BF28500940E0
:20482000B43F0050B03F0050AC3F00500000094010B4064A064C1368206811688B42FAD1F8
:204840001B0443EA10405DF8044B7047082009400C200940024B186800F00E00704700BF3A
:20486000D42108404BF69A120B4B1B68C3F30F3393420BD04BF6BE1293420AD04BF620303C
:20488000834214BFFF20022040B27047002040B27047012040B27047181300504BF69A109D
:2048A000224A234B11681B681268DBB2802BC2F30F3228BF002382424FEA11710AD04BF6D6
:2048C000BE1082421CD04BF6203082421ED0FF2040B2704701390729F9D801A252F821F016
:2048E00019490000CF4800001F490000CF480000CF480000CF4800002949000023490000B4
:2049000051B10229E3D11433D8B2E1E70029DED10A33D8B240B270470A2040B270471420CE
:20492000D6E71633D8B2D3E71520D1E718130050A01000504BF69A1208B50D4B1B68C3F38A
:204940000F33934211D04BF6BE12934208D04BF62032934214BFFF230223012B00D0FEE73E
:20496000FFF79CFF1328FADD08BD0023F5E700BF18130050F8B50E4B0E4A1B781688C3F153
:204980003005AC19802C02DD00242046F8BD074609492A46194408F0E9FC084A084B1168EC
:2049A0001B8878193246194408F0E0FC2046F8BD7B3A00205E3A00207C1D0020781D002004
:2049C000603A002010B40E4C2178814214DBC1F1300313F0FF0308BF0A4B0B4A08BF1B78FF
:2049E000128813449BB20344802B05DC091A217001205DF8044B704700205DF8044B7047FB
:204A00007B3A0020603A00205E3A0020084A138883420BDB10B4074C80B221881B1A1380FD
:204A20000844208001205DF8044B7047002070475E3A0020603A0020014B1880704700BF6B
:204A40005E3A0020024A034B10881844704700BF603A0020AC1D0020024B03481B78184470
:204A6000704700BF7B3A00207C1D0020014B1888704700BF5E3A0020064B1878C0F1300056
:204A800010F0FF0004BF044B1878044B1B88184480B270477B3A0020603A00205E3A0020F7
:204AA00008B5094B002103F11E0223F8021F9342FBD10648064900F0ADF8BDE80840054867
:204AC000034900F0A7B800BFD63A0020C83A0020C4E50000D03A002070B40748074A084942
:204AE000084E094D302400230470116033802B8070BCFFF7D5BF00BF7B3A0020781D002051
:204B0000AC1D0020603A00205E3A0020802928BF802138B50C460546FFF7DEFF044B2946EE
:204B20002246186808F022FC024B20461C8038BD781D00205E3A0020F0B40E4B0E4A1E68EB
:204B40005D689C68DF680660C760456084601E695D699C690661456184619E8B5568946809
:204B6000D368126886834D608C600A60CB60F0BC704700BFD83A0020C83A0020F0B40E4BD6
:204B8000066845688468C7681E605D609C60DF600669456984691E615D619C61808B074AC9
:204BA00098830D684C688868CB68156054609060D360F0BC704700BFD83A0020C83A0020CC
:204BC000024B23F810100120704700BFD83A0020014B33F810007047D83A002008B5044B08
:204BE0000F3803EBC00000F015F8012008BD00BFC83A0020024B0F3803EBC000704700BF44
:204C0000C83A00200148024900F00AB8D03A0020C4E500000A684B6802604360704700BFB9
:204C200008B5082208F070FBB0FA80F0400908BD1020704710B50A4A0A4B82B000241470D3
:204C40001C80FDF707F8009400F500510122064B0648FEF7B9FF064B01221A7002B010BDFF
:204C60007F3A0020641E002009520000501E0020833A0020074B1B7813B1074B1A7802B1B3
:204C80007047064982B0096A012201911A7002B0084700BF833A00207F3A0020CCED0000FB
:204CA000094B1B783BB1094B1A7822B1084A127802F0FF0102B17047064A1970536A82B068
:204CC000019302B0184700BF833A00207F3A0020813A0020CCED000008B5FFF7E1FF024B46
:204CE00000221A6008BD00BF4C1E0020F0B593B0FFF7BCFE0546FFF7A5FE3D4C064623682E
:204D0000002B46D0FFF7B2FE032802D0FFF7B4FE08B913B0F0BD374B9B6898470028F8DB77
:204D2000FFF7A4FE0028F4D0FFF7A6FE0028F0D01020FFF75FFF3049FFF772FF18B9FFF742
:204D400061FF0028E5D00D20FFF742FF206000283CD0FFF78FFF29480421294A0023FEF759
:204D60004DFC01F06BF902AF0446002834D0304629463A4601F0AAFC9DF81830012BC8D1D0
:204D80009DF81B3043B9002CC3D11E4BDB689847BFE7FFF785FFB5E738461749FFF740FF1D
:204DA0000028F0D09DF82220174B0026174D02218DF806208DF804100122DB688DF8056091
:204DC00001A803212A7098472E70DCE7FFF768FF0A48FEF73BFCC4E701F04EF93046294689
:204DE0003A4601F073FC9DF81830012BCDD1C7E74C1E0020C4F20000F83A00202C1E002082
:204E0000D94C0000A8F20000CCED0000803A0020024B1B6803B17047FFF742BF4C1E002084
:204E200010B40D4B0D49C2B200240C7083B01A700B4A0C4B38B9526A18701346019203B0AF
:204E40005DF8044B1847126A019201221A70019B03B05DF8044B1847813A0020833A002089
:204E6000CCED00007F3A002030B50B4983B00B7803F0FF046BB9094B01250D701C70FCF721
:204E8000E9FE2A4600F5005100940548054BFEF79BFE012003B030BD833A0020813A00203D
:204EA000501E00200952000030B583B00C460546FCF7D0FE231A042B48BF041D0023009349
:204EC000284621460122024BFEF77EFE03B030BD095200002DE9F04F804E89B033783BB926
:204EE0007F4B1B7823B90525284609B0BDE8F08F0446FFF7C1FD0028F5D07A490F20FFF731
:204F00006DFEFFF77FFE80460C20FFF761FE40B901210B20FFF754FE734B5B689847002856
:204F2000E1DBFFF7A9FD8246704F4FF001097D68FFF792FD5146A847BB696D4A019382F870
:204F40000090984720B16A4A002313700125CBE7FB690393984705460028F4D1FFF7A0FE3A
:204F6000337886F80090DBB202934CBB7B6905941C464FF0060B0495FCF76CFE0546FFF7E9
:204F800079FE6FF02709C5EB0909FCF763FE10EB090FFAD4A047002800F09280FFF780FE8F
:204FA000FCF758FEDFF85491C0EB0909FCF752FE10EB090FFAD4BBF1010BDDD1049D059C63
:204FC00018F1000818BF4FF00108B8F1000F74D00A20FFF7FDFDC3B20593FCF743FFFCF756
:204FE00039FEA9464546A046424BDFF814B11B1AC0EB0B0B0493FCF72DFE10EB0B0F55D507
:20500000FCF730FF15B9B8F1000F2CD1BB6850469847FCF71FFE384C241AFCF71BFEE04253
:20502000FBD4002DE7D1019B984710B9039B9847B8B3FCF70FFE4D466FF04004241AFCF729
:2050400009FEE042FBD43B6907A803219847032819D0FFF725FE9DF8082000233270244AE5
:205060000125137040E7FCF7F5FD049BC342CDD4A846FFF715FE9DF80830022533701C4B41
:2050800083F8008030E79DF81E30059A9342E0D1FFF706FE9DF8082000233270144A137099
:2050A00022E77B6998470028C3D0A4E7FFF7F8FD002D14BF00250225ECE7FFF7DBFD87E798
:2050C0000190FFF7EDFD0A4B019801251870FFF7E7FD9DF80830337006E700BF833A0020F0
:2050E000813A0020F83A0020C4F20000CCED0000803A0020BCFBFFFFFAFEFFFFC8FEFFFFCB
:2051000080DAFFFF2DE9F0471646002A40D0334B07461B688846002B54D11546DFF8C09066
:205120002846FEF779FE0446686800F069FF0C20FFF74EFDB0B901210D200CB1FFF740FD0E
:2051400001210B20FFF73CFDD9F80430984700284FF001014FF00C002CDBFFF731FD686840
:2051600000F02AFF2546002CDAD13046FEF754FE0546706800F044FF0D20FFF729FD8146B1
:205180002046FFF7A7FE032804464FF0010301D1BDE8F08738464146224601F055FB002C8E
:2051A000F6D1002DF4D02E460124B9F1000FDCD1BDE8F08738464146BDE8F04705220123F0
:2051C00001F042BB506800F01BFF012238464146BDE8F047134601F037BB00BF4C1E002096
:2051E000C4F2000070B5054600200C46FFF772FE0328024606D028462146BDE8704001231A
:2052000001F022BB70BD00BF2DE9F04F7C4C83B023880546B3F5D47F71D065D9B3F5ED7F00
:2052200020D0B3F5FB7F65D1764B1A68764E7748002102F500521A6031700170744E3378FD
:2052400023B9744B1B68002B00F0A280FCF702FD714B01461B78002B40F08E804FF4D47378
:20526000238049E06A4E33786C4F002B74D13B78002B71D0FCF7EEFC694A6A4B12689B1A41
:20528000C34269D5DFF8AC91DFF8A081D9F814309847002800F0988098F80030013388F827
:2052A0000030DFF88CA1D9F818B09AF8003001338AF80030D847002846D0002388F8003049
:2052C0009AF800300A2B02D9D84700287FD0D9F81C30984700283FD14F4B1B78002B7CD18D
:2052E0004FF4ED73238007E023B9FCF7B3FC454B18609AE70023238003B0BDE8F08F434A50
:2053000013780133DBB2012B137097D93E4B1B787BB9FCF79FFC3B4B434A1968521AC24240
:2053200083D53D4A1968137863BB4FF4FB732380E2E7374EFCF78EFC394F3C493C4A00238F
:2053400038600B7013708EE798F80030052BB7D933780BB9FFF75CFD3B78002BD9D0354FF9
:20536000BB69984700BBFB699847E8B93378002BCFD1FFF74DFDCCE7284601F59C71FFF7BB
:2053800093FD6BE7284601F50051FFF78DFDCCE733780BB9FFF76EFC264B5B69984760B947
:2053A000194B01221A70C5E7FCF754FC1C4A1D4B12689B1AC342D9D5ABE73378002B7FF462
:2053C00045AFFFF725FD41E788F8000069E7D9F81C3098470028BBD079E72E68FCF73AFCFB
:2053E000331A13F5AE7F4FF0000306F5B071009348BF011D012228460F4BFEF7E5FB6FE7FF
:20540000641E00205C1E00207C3A0020823A0020803A00204C1E0020833A00207F3A002084
:20542000601E002034F3FFFF00EBFFFF7E3A00207D3A0020CCED00000952000008B5064BEF
:2054400002201B685B6B9847012803BF034B186800F00100002008BDB801001078200840CA
:20546000F0B583B005460C46FFF7E8FF074680B17CB1094E33684FF080405B6815F8011B52
:20548000984733684FF08040DB6801A99847013CF0D1384603B0F0BDC401001070B582B0BF
:2054A0000546FFF7CBFF044660B1084E294633684FF080405B68984733684FF08040DB68A8
:2054C00001A99847204602B070BD00BFC4010010F0B5264D07462B6885B002205B690E4603
:2054E00098472B6802205B6B9847012804461F4BF7D11B684FF48070DB6998471C4B1D4A27
:205500001C6013689B07FCD51B4A1C4913681C4D4FF0030E23F00F0308200C4609681360A0
:20552000C5F800E00022019000970D6813464FF080401449A847144B07221B6800965D6C01
:205540004FF080404FF0FF330521A8470F4A136843F00203136023684FF080401B6903A98D
:2055600098470028F7D105B0F0BD00BFB8010010282008602820084014000040C401001009
:2055800020000040006CDC02B4010010040000400120704701207047C82303FB00F3104A72
:2055A00003F5522303F6953330B50146A2FB03050C4CAD0904FB05342404A2FB042483B086
:2055C000A40900932A46A3B20748FDF783FA074B074AADB21C82DD81158403B030BD00BF10
:2055E000D34D621018FCFFFF04EE0000F41500200C16002008B5FDF73FF830B1044B5B88AF
:20560000022B0CBF0120022008BD022008BD00BFC415002010B582B0FDF704FA0446FDF7C4
:205620002BF808B902B010BD0B4801A9FDF72CF8012805D001990948FDF74CFA02B010BD50
:20564000638803F44063002BECD1638803F44063002BF5D0E6E700BF010001042CEE0000BC
:2056600010B5124B124C1B68052284F8242082B09B88204601A96383FDF706F8012807D003
:2056800062880C480199FDF725FA002002B010BD2046FDF74BF80128F8D062880199064820
:2056A000FDF718FA002002B010BD00BF841500200C16002058EE000098EE000010B50E4CA0
:2056C00082B001A92046FCF7DFFF012807D062880A480199FDF7FEF9002002B010BD2046F1
:2056E000FDF724F80128F8D0628801990448FDF7F1F9002002B010BDF4150020DCEE000069
:205700000CEF000008B50346B32994BF0A46B4220248194607F02AFE012008BD821E0020C5
:2057200070B50A4D00262C6803E024682B68A3420AD02379032BF8D10548FEF737FA2468E0
:205740002B680136A342F4D1304670BD741E002074140020F8B5104E35682B79032B02D08C
:2057600000242046F8BD2C89023C002C08DD8C4205F10A070ADD3957042089B2FFF720FA2B
:205780002A68002332602B712046F8BD3946224607F0ECFDEFE700BF7C1E002010B582B0FE
:2057A000FCF76AFF08B3124C6388022B1DD1114801A9FCF769FF012807D001990E48FDF72C
:2057C00089F902E06388022B03D1FCF755FF0028F8D16188A1F55053043B012B05D9074887
:2057E000FDF778F9002002B010BD012002B010BDC41500200100010444EF00006CEF000078
:2058000070B582B0FCF738FF234C60B16388022B09D1FCF731FF628801462048FDF75AF992
:20582000012002B070BD00256580A37F1A4E5BB2C3F5FF6307339BB2304601A92383FCF76D
:2058400023FF012809D0738801469BB2019A1448FDF740F9284602B070BDFCF7FBF96FF0DE
:205860003F052D1A03E0FCF7F5F9C54203D563889BB2022BF7D16388074A9BB2022B02D144
:20588000012002B070BD5288064892B20199FDF721F90020C5E700BFC415002088EF0000F9
:2058A000B4EF0000F4EF000008B5FFF7D9FE012804D00948FCF7ECFA002008BDFFF7FEFEDA
:2058C000012804D00548FCF7E3FA002008BDFFF797FFC0B208BD00BF24F0000050F00000F3
:2058E00008B500F01BFB01280CD0FFF757FFFCF78FFFFCF77FFE04480449054A00234380D5
:205900000B711371012008BDC4150020381F0020C41F0020F8B5FCF747FE00F0FFFA012837
:205920000FD0FCF7A9FE68B1294C6388022B09D1FCF7A2FE628801462648FDF7CBF8012064
:20594000F8BDF8BDFCF798FE0446F8B9FCF706FF0128054606D02048FCF79AFAFCF758FFDE
:205960002046F8BD1D494FF435721D4807F0FEFC1C4F1D491D4B1E4E022003223C70357029
:2059800008701A70FCF7ECFF012815D1FCF7F8FFFCF71CFEFFF764FE012804D01548FCF77C
:2059A00077FA0020F8BDFFF789FE01280BD01248FCF76EFA0020F8BD1048FCF769FAFCF7F5
:2059C00027FF2046F8BDBDE8F840FFF719BF00BFC415002070F0000094F00000F8EA00005D
:2059E0001C04002190030021750300217903002138030021D4F00000F8F00000B4F00000D0
:205A000030B583B007285BD8DFE800F02A255A5A5A5A3404454B1970FCF72EFE002846D0F0
:205A2000434B5B88022B08BF002540D1FFF7B6FE012865D03F48FCF72BFA0324FFF7E0FE29
:205A4000012803D03C48FCF723FA0324002D62D1204603B030BD212935D9022003B030BD0F
:205A600001294FD00029F8D10191FFF739FF01990846F3E701F10A03182BEED801912F4C54
:205A8000FFF7C8FD01990F2354F83320D80091422A4D03F1FF3344DD5A1CF5D1FFF704FF42
:205AA000012802D02648FCF7F3F90020D6E7FFF731FF012833D02348FCF7EAF90320CDE757
:205AC000012003B030BD20484FF47A72C389008A02FB03F302FB00F2A3F5522302F57F42F1
:205AE000FF321A48A3F6953303EB2243A0FB0323C8B2C3F387139842D7D0FFF74DFD8BE7A1
:205B000000249BE7FFF706FF0128CED01048FCF7BFF90320A2E7FFF7E3FE20469EE7054661
:205B200084E70C4B28441860B8E700BF96170020C41500206CF100008CF1000078EA00005F
:205B40002CF1000050F10000F41500201F85EB5110F100008415002079B130B50C4683B090
:205B600010286FD8DFE800F0101D6E6E6E6E6268376E6E6E6E56595D0B00022070470E2330
:205B80000B60002003B030BDFCF776FD30B1404B5888A0F10200B0FA80F040092060002092
:205BA000F0E73C494FF47A72CB89098A02FB03F302FB01F2A3F5522302F57F42FF32A3F601
:205BC0009533354903EB2243A1FB0323C3F3871323600020D6E7FCF74FFD002834D1FFF758
:205BE00099FE01284BD140F20343002201A869460192ADF80430FCF747FD01283CD06FF0A0
:205C00007F05FFF76DFE15F1800F25600CBF03200020B7E700200860B4E721230B600020E7
:205C2000B0E76FF009030B600020ABE71B4B00201B681B680B60A5E7194B002093F9003082
:205C40000B609FE701209DE7114B5B88022BC6D140F20343002201A869460192ADF804304D
:205C6000FCF712FD012804D06FF07F032360032088E79DF90250C6E79DF90250C1E70948B9
:205C8000FCF706F96FF07F03236003207AE700BFC4150020F41500201F85EB5184150020B0
:205CA00096170020ACF1000070B582B00446FCF7E3FC60B32C4B5B88022B08BF002526D18A
:205CC0002A49221DA31C2A4C92B29BB2100A2382E16148700A70FFF761FD0020FCF786FE2E
:205CE000204601A9FCF7D0FCB8B9638801469BB22048019AFCF7EEFE0126FCF78BFE00233D
:205D00006380FFF77DFD45BB304602B070BDFFF701FE01281BD10546D2E7FCF7A3F8638854
:205D200003F4406333B9FCF789FB638803F44063002BF8D063880E4A9BB2B3F5505F11D026
:205D400051880D4889B2FCF7C5FE0126D5E70B48FCF79EF8012002B070BDFFF7C1FD30463B
:205D600002B070BD0026C8E7C4150020801E00203416002004F20000DCF10000C4F10000D6
:205D800010B50C46B32C014694BF2246B422044807F0ECFA2046BDE81040FFF785BF00BFB8
:205DA000821E002030B583B000F0B8F801281BD0FCF762FCD0B1184B5B88022B26D00025F7
:205DC0008024164801A9FCF75FFC012803D19DF806406306F5D07DB9114B64B293F900008F
:205DE000A042D4BF0020012003B030BDFFF792FD012804D10546E3E7FFF772FDECE709482C
:205E0000FCF746F8FFF76CFD0120EDE70648FCF73FF80120E8E700BF341600200100030464
:205E20009617002044F2000060F2000008B5FCF723FC58B1064B5B88022B06D1FFF7B2FF56
:205E400010F1FF3018BF012008BD002008BD00BFC41500202DE9F0412648FCF7F9FAFEF728
:205E600001FD012803D000242046BDE8F081224C224DFCF741FD204600218C2207F050FB03
:205E800000218C22284607F04BFB4FF0000E774602211B4B1B4A61F3830EDFF878C0002676
:205EA00061F38307DFF87080842184F805E0E180304625602C60E9806F7183E85000C8F88B
:205EC00000409362C2F82CC0FFF766FBFFF722FD0128044606D034460B48FBF7D9FF204635
:205EE000BDE8F0810948FCF7A3FD31460848FDF73DFEB9E770150020381F0020C41F0020F3
:205F0000741E0020C415002084F2000098F2000074140020681E00207C1E0020014B1878F2
:205F2000704700BF843A00200849094B094A1B680878126840B2A2F5407202FB00F043F33A
:205F40001003A3EB20108030001270470C1300503050094028500940014800F0EBBD00BF5E
:205F60008815002038B50F4800F096FD044688B10D4800F091FD0546206060B1FEF7FAFC80
:205F800005F1A001A5F8800005F18200FEF7D4FD204638BD38BD2146024800F09BFD284618
:205FA00038BD00BF8815002094150020016801F18200A031FEF7C0BD10B5046804F18200DF
:205FC00004F1A001FEF7B8FD2046FEF7D3FCA4F8800010BD10B504460748214600F09CFD20
:205FE00000B910BD2168054800F074FD2146BDE81040014800F06EBD88150020941500209E
:2060000010B504460948214600F086FD00B910BD2468B4F880102046FEF778FD04F18200B1
:2060200004F1A001BDE81040FEF7A8BD88150020036803EB4101B1F88200704770B50D4EC1
:20604000002435460F20FEF7D5FD2946FEF7E8FD093518B90134102CF4D170BD0A20FEF7D1
:20606000B7FD04EBC4043444237A181AB0FA80F0400970BD0026002070B5194D00242E4675
:206080000F20FEF7B7FD3146FEF7CAFD093618BB0134102CF4D10F2404EBC404A4F1090322
:2060A000104C2B4459681868C3F80D10C3F80900197A03F10902093BA3421172F2D10A200D
:2060C000FEF786FD28720F20FEF794FDBDE8704001460348FEF79EBD002CDDD1EFE700BF53
:2060E00000260020F7250020014BDB68184700BFD8F20000014B5B69184700BFD8E50000BC
:20610000014B9B69184700BFD8E50000024BD86900B10047704700BFD8E5000080B110B5A5
:20612000044682B0406BFDF707FE50B102462146054B0648DB68019302B0BDE81040184714
:20614000704702B010BD00BFD8E50000E961000071B370B50E460446406B1546FDF73CFE28
:206160007068FFF737FFB168194800F0B3FC3146184800F0AFFC606BFDF7DEFDC8B100235A
:2061800084F82C3084F82D3084F82E3045B9294604F10C002346BDE870400F4AFDF72EBA13
:2061A0000E4BDB699847002814BF01461021EFE7704704F10C00FDF749FA21460848FDF780
:2061C0000BFE2146BDE87040064800F083BC00BFA0150020B81500201D610000D8E50000C1
:2061E00000270020AC150020002878D02DE9F04F81B0032908D8DFE801F03F393F0290F87C
:206200002E301A4480F82E200646406B0F46FDF793FD044630B95FE02046FDF7FDFD04461C
:20622000002859D00A216068FFF702FF05460A20FEF7CEFC8542EFD1A568002D4CD07A1E7A
:20624000012AD5F80090D5F8048096F82CA019D9304621463A46FFF77BFF484641463A46B7
:20626000534601B0BDE8F04F00F0EEBA90F82D301A4480F82D20C7E790F82C301A4480F8E8
:206280002C20C1E7164BDB699847002814BF83464FF0100BFDF7C6FD2B7A96F82C209A4256
:2062A000D6D2BAF1030FA8BF4FF0030A012303FA0AF303FB0BF3B0FBF3F203FB120106F114
:2062C0000C0059443346074AFDF798F9606801B0BDE8F04FFFF76ABE01B0BDE8F08F7047BF
:2062E000D8E500001D6100002DE9F041064610200F46FEF77FFC4E4B05461A78002A46D025
:206300004C4A118800293FD04B1C9BB20A201380FEF756FC4848FDF70FFD044628B917E0AC
:206320002046FDF779FD044690B1201D2946FEF777FC0028F4D0606BFDF764FD07282EDDA8
:2063400030463946BDE8F0410422012300F07CBA3A4800F0A1FB04460028F1D02946201D15
:20636000FEF758FC002304F13000606384F82C3084F82D3084F82E302363FDF7D9FC2E4879
:206380002146FDF7E5FCD6E702230121BEE701221A70FDF747FD274A01461080B2E72848E2
:2063A00000F07AFB054630B3264800F075FBA860E8B1FFF7D7FD6860A8B10920D5F8088072
:2063C000FEF706FC28BB032388F8083088E8C0002946606BFDF7BCFC606BFDF7ADFC8542C0
:2063E0001DD0BDE8F0811748A96800F073FB2946134800F06FFB606BFDF704FD00289FD150
:2064000021460D48FDF7E8FC21460C4800F062FB96E70920FEF7DCFB88F80800D6E704F134
:206420000C002346BDE8F0410021074AFDF7E6B8853A0020623A002000270020AC1500204A
:20644000B8150020A01500201D61000008B5054800F010FB044800F00DFBBDE8084003487B
:2064600000F008BBB8150020A0150020AC150020014B1888704700BF92170020C0B1037AAD
:2064800010B4022B15D00378022B1DD00379CBB9447A14F0030418BF0124C37913F0030387
:2064A00018BF012301B10C6002B113605DF8044B7047C4790379002CF4D0B3FA83F3002452
:2064C0005B09EFE70024E8E700231C46EAE700BF0B4630B50D46002203F8012B01334A70BA
:2064E00003F8012B03F8012B03F8012B1A70437D83B0D9075CBF01232B70037E0446012BF9
:2065000023D904F11000694601AAFFF7B7FF009B0BB10223EB70019B0BB102236B70E37DE5
:2065200003F00303022B03D0032B0CBF08230023AB70637E03F00303022B03D0032B0CBF2D
:20654000082300232B7103B030BDC37D9A0706D0437E9B0703D0C28B838B9A4202D0002398
:206560002375CEE701230375CBE700BF02280CBF022308230B4403E013F8012DFF2A03D114
:206580008B42F9D1012070470020704700B583B06946FFF79DFF9DF800309DF801109DF88C
:2065A000022002330B449DF8031013449DF804200B449DF805001344184403B05DF804FBDA
:2065C000F0B507460C4683B06946FFF781FFBA7C7B7C397C02F00102FD7C100103F00102C8
:2065E00040EAC2023B7D01F00701114305F0010241EA421203F0010342EA83132370787DF0
:206600007B7EB97DFA7D00F0010040EA831001F001013B7E40EA410102F0030241EA820268
:2066200003F003039DF8001042EA03130129637002BFBB7E0320A3709DF8013018BF02208E
:20664000022B2ED09DF802E0BEF1000F0ED0034600EB0E02D2B207EB0E0111F8016D5D1C43
:20666000E654EBB29342F8D17044C0B29DF80330022B20D09DF804E0BEF1000F0FD003463B
:206680000EF1080200EB0E063A44F6B212F8015D591CE554CBB2B342F8D17044C0B203B0A2
:2066A000F0BDBA8B431C2254BA8BDBB2120A0230E254C0B2C6E7FA8B431C2254FA8BDBB232
:2066C000120A0230E254C0B2D4E700BF2DE9F047012986B00F4640F3838005784178034693
:2066E00005F00700C5F3C009C5F30018C5F3401C01F00104C1F3400AC1F3810E8DF80C0071
:20670000C5F38015C1F3011089098DF814008DF8151003AE8DF80D908DF80E808DF80FC058
:206720008DF810508DF811408DF812A08DF813E003CE3688106116835161002C35D09E1CB9
:20674000144603A801A902AA1D46B846FFF796FE9DF81370002F31D0029B6BB3727816F8F8
:20676000023B03EB0223A383022F55D0032F3BD09DF815705FB3019BDBB1717816F8023B88
:20678000029A03EB01239BB2E3833AB3022F4DD0032F35D0701BC0EB08038045B8BF002089
:2067A000A663E36306B0BDE8F0879978DE1C9176C6E7A38BE383E9E7A383D5E720462149E3
:2067C000FEF728FAA7839DF81570002FD3D104F108001C49FEF71EFAE783DBE7A383D5E70E
:2067E000002006B0BDE8F08706F108000346621E13F8011DB34202F8011FF9D10646B7E7F3
:2068000008363246E31D04F10F0012F8011D03F8011F8342F9D1BDE720460A49FEF7FAF9A7
:206820007378237016F8023B6370A1E704F108000449FEF7EFF97378237216F8023B63726D
:20684000A8E700BFC4E50000844618B1084611461A466047704700BF30B591B0FEF7F2F887
:206860000446FEF703F96A4601462046FFF72EFFC0B30446FEF7CAF8A0B30E209DF81010B3
:20688000FEF79EF99DF817308BB1BDF81C50FFF7EFFD854205D04FF6FF73BDF81C209A4231
:2068A00020D19DF817006946FFF760FEF0B102A90F20FEF793F90D209DF81210FEF780F9EA
:2068C0009DF815300A2033B14FF6FF71FEF778F9204611B030BD9DF81A10FEF771F920461D
:2068E00011B030BD4FF0FF3011B030BD69461020FEF774F9DBE700BF30B591B00546FFF7A5
:20690000B7FD4FF6FF73984200F08A8040226846002106F005FE444B1A78002A6FD00E2056
